:020000040800F2
:1000000000500020F95500083306000835060008A6
:1000100037060008390600083B060008000000000B
:100020000000000000000000000000003D06000885
:100030003F060008000000004106000843060008D3
:100040004156000841560008415600084156000834
:100050004156000841560008415600084156000824
:100060004156000841560008415600084156000814
:100070004156000841560008415600084156000804
:1000800041560008415600084156000841560008F4
:100090004D06000841560008415600084156000828
:1000A00041560008415600084156000841560008D4
:1000B000415600085D0600086D060008415600081C
:1000C00041560008415600084156000841560008B4
:1000D000415600087D0600084156000841560008B8
:1000E0004156000841560008415600080000000033
:1000F0000000000000000000000000000000000000
:0C01000000000000000000005FF808F1A3
:10010C0010B5054C237833B9044B13B10448AFF345
:10011C0000800123237010BDE001002000000000CE
:10012C004069000808B5034B1BB103490348AFF302
:10013C00008008BD00000000E401002040690008B8
:10014C0010F8012B11F8013B012A28BF9A42F7D075
:10015C00D01A7047034613F8012B002AFBD1181A4A
:10016C00013870474FF0000C80F800C0417080F8E7
:10017C0002C0A0F804C08260C360009B0361019BB5
:10018C004361029B8361039BC361704708B50122E5
:10019C000270818A006903F04DF908BD10B5044660
:1001AC0000220270818A006903F044F9E168A068BA
:1001BC0003F0B6FD10BD000070B50678002E31D0EE
:1001CC0004460D4601F19503B3F5957F2CD9002912
:1001DC002FDB00228270818B806903F02BF94FF4A6
:1001EC00C85101FB05F5224B83FB05232B44ED176E
:1001FC00C5EB63151F4B93FBF5F5ADB2A580A3685A
:10020C001B68013DDD62A388A268013BD360E368F3
:10021C00C3B9A388A26812685B085363E168A0683D
:10022C0003F010FD304670BDC168806803F078FDA6
:10023C00F8E70122818B806903F0FCF80123A3709D
:10024C006D42CCE7042B07D0082B0BD0A388A268F7
:10025C0012685B081364E1E7A388A26812685B0864
:10026C009363DBE7A388A26812685B08D363D5E7C6
:10027C0089888888006CDC0210B9024B00221A7045
:10028C00704700BF2002002070B5184A1278012A6E
:10029C001CD004460E46FFF75DFF20281BD8134BDD
:1002AC0001221A70124D2146284605F003FA284601
:1002BC00FFF750FF334682B229460E4804F055FD35
:1002CC0070B90A4B00221A70012070BD0220FFF792
:1002DC00D3FF0020F9E70320FFF7CEFF0020F4E75F
:1002EC000420FFF7C9FF0020EFE700BF4802002001
:1002FC0028020020E414002010B5134B1B78012BAE
:10030C0012D00446FFF726FF202812D801220E4BEC
:10031C001A700E4B1C600E490E4B19600E4804F0FF
:10032C002EFF58B9012010BD0320FFF7A5FF0020B8
:10033C00F9E70120FFF7A0FF0020F4E70420FFF706
:10034C009BFF0020EFE700BF2002002024020020CA
:10035C00FC0100201C020020E41400200268164B53
:10036C009A4200D0704770B5144B19680B780A2B61
:10037C0007D00131114B19600122114804F0FFFE26
:10038C0070BD104B1E68104C2046FFF7E3FE421E5A
:10039C002146304605F078F92046FFF7DBFE0138A0
:1003AC000025355420222946204605F07BF9074BC1
:1003BC001D7000F061F8E3E7003801401C020020DA
:1003CC00E414002024020020FC0100202002002064
:1003DC000268064B9A4200D07047054B1B78012BE4
:1003EC00FAD1034B00221A70F6E700BF0038014027
:1003FC004802002070B584B0174E0821304603F037
:10040C00D1FC164D0421284603F0CCFC6421144881
:10041C00FFF73AFF1348FFF76FFF4FF48063039326
:10042C00114C0294022301930094082332460021BC
:10043C000E48FFF797FE4FF40073039302944FF4AA
:10044C00006301930A4B009304232A4600210948B8
:10045C00FFF788FEFEE700BF9C1400205414002018
:10046C00586900084C020020000801406C02002072
:10047C00000C01408C02002010B58CB000240194BB
:10048C003149324805F01EF90AE00CAB03EB84034A
:10049C0043F8280C0134E4B22B49002005F012F982
:1004AC000028F2D10CAB03EB8404002344F8283C65
:1004BC00029C27492046FFF743FE20B125492046E0
:1004CC00FFF73EFE28B92448FFF760FE2348FFF7EC
:1004DC005DFE23492046FFF733FE20B1214920461B
:1004EC00FFF72EFE28B91C48FFF758FE1B48FFF7F4
:1004FC0055FE1D492046FFF723FE20B11B4920461F
:10050C00FFF71EFE38B9039805F095F80190019994
:10051C001248FFF751FE16492046FFF711FE20B195
:10052C0014492046FFF70CFE38B9039805F083F800
:10053C00019001990848FFF73FFE0448002303701F
:10054C00FFF7DAFE0CB010BD706900084C020020F9
:10055C00746900087C6900086C0200208C02002081
:10056C00846900088C69000894690008986900087F
:10057C009C690008A069000872B6FEE700B595B04A
:10058C00282200210DEB020005F08CF800230593C6
:10059C00069307930893099301930293039304938F
:1005AC0001220A924FF480330B930E920222119285
:1005BC0012934FF4801313930AA802F081FAD0B966
:1005CC000F23059302230693002307934FF48062B5
:1005DC0008920993012105A802F0B2FC68B9102316
:1005EC0001934FF48003049301A802F085FD30B908
:1005FC0015B05DF804FBFFF7BFFFFFF7BDFFFFF77A
:10060C00BBFF08B502F022FAFFF7B8FF04F0D4FDE7
:10061C0004F0CCFE00F04CF804F082FF04F024FF50
:10062C00FFF7E8FEFEE7FEE7FEE7FEE7FEE7FEE784
:10063C0070477047704708B502F01AFA08BD000001
:10064C0008B5024800F0B9FF08BD00BF400F0020FC
:10065C0008B5024803F085F808BD00BF541400200B
:10066C0008B5024803F07DF808BD00BF9C140020BB
:10067C0008B5024804F066FC08BD00BFE414002075
:10068C0082B00A4B9A6942F001029A619A6902F0AF
:10069C0001020092009ADA6942F08052DA61DB6959
:1006AC0003F080530193019B02B07047001002408D
:1006BC0008B500220F49104803F011FC70B90F491E
:1006CC000D4803F023FC60B90D490B4804F027FAE0
:1006DC0050B9094803F021FC48B908BDFFF74CFF9D
:1006EC00EDE7FFF749FFEFE7FFF746FFF1E7FFF70D
:1006FC0043FFF2E700000020AC0200206C00002059
:10070C005000002012230B80004870471C00002072
:10071C0004230B80004870473000002000239342D4
:10072C001ED200B510E00CF1370C01F813C000011B
:10073C004FEA430C0CF1010C4FF0000E01F80CE0E9
:10074C000133DBB2934209D24FEA107CB0F1204F57
:10075C00E9D20CF1300C01F813C0E8E75DF804FBAA
:10076C007047000038B50B4BD3F8E807D3F8EC47CB
:10077C00D3F8F037C01800D138BD074D0822A91C9A
:10078C00FFF7CCFF042205F112012046FFF7C6FF4C
:10079C00F2E700BF00F0FF1F3400002008B51A2359
:1007AC000B80FFF7DFFF014808BD00BF34000020BD
:1007BC0008B50A4628B90549054804F006F8034867
:1007CC0008BD0249024804F000F8F8E77005002063
:1007DC00A469000810B50A46034C2146034803F0EF
:1007EC00F4FF204610BD00BF70050020BC69000856
:1007FC0008B50A4628B90549054803F0E6FF034841
:10080C0008BD0249024803F0E0FFF8E7700500203C
:10081C00D069000808B50A4628B90549054803F00F
:10082C00D4FF034808BD0249024803F0CEFFF8E7A5
:10083C0070050020DC69000800207047002070471C
:10084C0010B50146074C204604F078F901224FF40C
:10085C000051054802F0EEFD204604F075F9002029
:10086C0010BD00BFAC0200200010014010B5064CBA
:10087C0000220649204604F059F90549204604F0A7
:10088C005DF9002010BD00BFAC020020580B002009
:10089C0070070020022805D8DFE800F005040200EC
:1008AC00012070470220704702680E4B9A4200D01C
:1008BC00704700B583B003F5DA33DA6942F400020D
:1008CC00DA61DB6903F400030193019B00221146FA
:1008DC00142002F035FE142002F06AFE03B05DF81D
:1008EC0004FB00BF005C004008B500F52C71D0F88B
:1008FC00E80203F02AFB08BD08B501EB810300EB0D
:10090C00C303D3F87C21D0F8E80203F04BFB08BDFD
:10091C0008B501EB810300EBC303DA6BD0F8E802F6
:10092C0003F086FB08BD08B5D0F8E80203F027FCFD
:10093C0008BD10B504468368022B09D10121D4F8F7
:10094C00E80203F005FCD4F8E80203F0D9FB10BD73
:10095C00FFF712FEF2E7000010B50446D0F8E802EB
:10096C0003F0F9FBA36923B1024A136943F00603B0
:10097C00136110BD00ED00E008B5D0F8E80203F0FB
:10098C00F3FB08BD10B504461D48C0F8E842C4F896
:10099C00C0021C4B036008234360022383600023C6
:1009AC008361C361036200F023F930BB182300227A
:1009BC001146D4F8C00201F028F8582300228021F7
:1009CC00D4F8C00201F021F8C02300228121D4F810
:1009DC00C00201F01AF84FF4887300220121D4F8F8
:1009EC00C00201F012F84FF4807300228221D4F877
:1009FC00C00201F00AF8002010BDFFF7BDFDD5E7DD
:100A0C00400F0020005C004008B5D0F8C00200F098
:100A1C007BF9FFF73FFF08BD08B594461A466346BD
:100A2C00D0F8C00200F0B3FEFFF734FF08BD08B5E4
:100A3C00D0F8C00200F0EDFEFFF72CFF08BD08B5A2
:100A4C00D0F8C00200F06AFFFFF724FF08BD08B51C
:100A5C00D0F8C00200F09EFFFFF71CFF08BDD0F8D5
:100A6C00C03211F0800F08D101F07F0101EB810140
:100A7C0003EBC10191F86A01704701F07F0101316C
:100A8C0001EB810103EBC1018878704708B5D0F800
:100A9C00C00200F07EFDFFF7FDFE08BD08B5D0F8E2
:100AAC00C00200F013FFFFF7F5FE08BD08B5D0F843
:100ABC00C00200F0E0FEFFF7EDFE08BD08B5D0F86F
:100ACC00C00200F0FAFE08BD004870472C1200204E
:100ADC007047704738B512F4804F44D00468B4F8AE
:100AEC0050309BB291F800C003EBCC03023304EB03
:100AFC004303B3F80044C4F309048B69A34228D31D
:100B0C001B1B8B618B697BB9056835F82C309BB24C
:100B1C0023F4804323F0700383F4005343F4004325
:100B2C0043F0800325F82C3012F0400F0ED00268F1
:100B3C000D7832F825309BB223F4E04323F0700398
:100B4C0043F4004343F0C00322F8253024B9204677
:100B5C0038BD00238B61D5E723460A8949690068B3
:100B6C0001F036FFF3E70468B4F850309BB291F80B
:100B7C0000C003EBCC03063304EB4303B3F800448F
:100B8C00C4F309048B69A3422FD31B1B8B618B69A4
:100B9C007BB9056835F82C309BB223F4804323F0E5
:100BAC00700383F4005343F4004343F0800325F8AF
:100BBC002C3012F0400F0FD1026891F800C032F8BF
:100BCC002C309BB223F4E04323F0700343F4004336
:100BDC0043F0C00322F82C30002CB8D023464A89AD
:100BEC004969006801F0F4FEB1E700238B61CEE7A0
:100BFC0070B586B0002800F08580044690F8A932C4
:100C0C00EBB1032384F8A932206800F02AFF2546B3
:100C1C0055F8106BEC460FCDACE80F002B68CCF8F8
:100C2C000030231D0ECB304600F00BFF054658B1AB
:100C3C00022384F8A9320125284606B070BD80F83D
:100C4C00A832FFF731FEDCE70021206800F013FF2B
:100C5C002B461AE05A1C02EB820104EBC101012065
:100C6C00487002EB820104F8313003EB830104EB92
:100C7C00C101CB8602EB820C04EBCC0C00208CF86F
:100C8C0003008863C8630864D3B261688B42E1D304
:100C9C0016E005EB850304EBC303002283F86921FE
:100CAC0083F8685183F86B21C3F87821C3F87C2151
:100CBC0005EB850304EBC303C3F880210135EDB2CA
:100CCC00A942E6D8254655F8106BEC460FCDACE89A
:100CDC000F002B68CCF80030231D0ECB304600F0F3
:100CEC00CCFE054620B1022384F8A9320125A3E7E6
:100CFC00002384F82430012384F8A932206801F001
:100D0C00F2F999E7012597E738B590F8A832012B4D
:100D1C0011D00446012580F8A852006800F098FE16
:100D2C0029462046FFF7D5FE206801F0DAF90020AD
:100D3C0084F8A80238BD0220FCE770B505460C46C5
:100D4C00164612F0400F00F00D810268B2F85030D8
:100D5C009BB2097803EBC103023302EB4303B3F8F4
:100D6C000024C2F30902A369934252D99B1AA361CE
:100D7C00A369002B6AD16378002B4DD12B68B3F893
:100D8C00502092B2134403EB0111B1F804349BB21E
:100D9C0023F4F8439BB2A1F80434B1F804346FEA9D
:100DAC0043436FEA53439BB2A1F804342B68627837
:100DBC00002A3ED1B3F8502092B21344227803EBB0
:100DCC000213B3F80C2492B222F4F84292B2A3F8B4
:100DDC000C24B3F80C246FEA42426FEA524292B2EE
:100DEC00A3F80C2421782846FFF792FD16F4804FC7
:100DFC0041D02A68217832F821309BB223F4E043A9
:100E0C0023F0700343F4404343F0800322F8213075
:100E1C0031E00023A361ABE7012BC7D12B68B3F8FA
:100E2C00502092B2134403EB01110023A1F80434B7
:100E3C00BCE7012AD6D1B3F8502092B213442278E1
:100E4C0003EB02130022A3F80C24CBE716F4804F1B
:100E5C000DD0286830F821309BB223F4E04323F006
:100E6C00700343F4404343F0800320F8213094F89E
:100E7C002430012B12D02A68217832F821309BB211
:100E8C0023F4E04323F0400383F0300343F40043A6
:100E9C0043F0800322F82130002070BD63691344B5
:100EAC006361E3691344E361216A236999421FD3A7
:100EBC00C91A21626278002A3FD12A68B2F8501010
:100ECC0089B20A44217802EB0112EBB9B2F804148E
:100EDC0089B221F4F84189B2A2F80414B2F80414CE
:100EEC006FEA41416FEA514189B2A2F8041426E03D
:100EFC0021B9002384F824301346DBE7002384F85F
:100F0C00243023620B46D5E73E2B09D8590813F041
:100F1C00010F00D00131890289B2A2F804140EE04D
:100F2C00590913F01F0F00D101396FEAC1616FEA43
:100F3C00514189B2A2F8041401E0012A06D09BB2F7
:100F4C0022896169286801F0D6F894E72A68B2F81A
:100F5C00501089B20A44217802EB011299B2A2F81E
:100F6C000414ECE70268B2F850309BB2097803EB3A
:100F7C00C103063302EB4303B3F80024C2F30902A6
:100F8C00A369934253D39B1AA361A369002B6BD122
:100F9C006378002B4ED12B68B3F8502092B21344D7
:100FAC0003EB0111B1F804349BB223F4F8439BB268
:100FBC00A1F80434B1F804346FEA43436FEA5343A5
:100FCC009BB2A1F804342B686278002A3FD1B3F8A5
:100FDC00502092B21344227803EB0213B3F80C2482
:100FEC0092B222F4F84292B2A3F80C24B3F80C2477
:100FFC006FEA42426FEA524292B2A3F80C24217873
:10100C002846FFF785FC16F4804F7FF434AF2A682E
:10101C00217832F821309BB223F4E04323F07003A3
:10102C0043F4404343F0800322F8213023E70023AC
:10103C00A361AAE7012BC6D12B68B3F8502092B25A
:10104C00134403EB01110023A1F80434BBE7012A7C
:10105C00D5D1B3F8502092B21344227803EB02138B
:10106C000022A3F80C24CAE716F4804F0DD128688F
:10107C0030F821309BB223F4E04323F0700343F4A7
:10108C00404343F0800320F8213094F82430012BA6
:10109C007FF4F1AE636913446361E3691344E36164
:1010AC00216A236999421FD3C91A21622A6861787F
:1010BC0000293ED1B2F8501089B20A44217802EBD3
:1010CC000112EBB9B2F80C1489B221F4F84189B2CF
:1010DC00A2F80C14B2F80C146FEA41416FEA5141BA
:1010EC0089B2A2F80C1426E021B9002384F824302C
:1010FC001346DBE70023236284F824300B46D5E744
:10110C003E2B09D8590813F0010F00D00131890288
:10111C0089B2A2F80C140EE0590913F01F0F00D17C
:10112C0001396FEAC1616FEA514189B2A2F80C141E
:10113C0001E0012906D09BB262896169286800F040
:10114C00DAFF98E6B2F8501089B20A44217802EB23
:10115C00011299B2A2F80C14EDE72DE9F041054605
:10116C002868B0F8443013F4004F00F00F82B0F848
:10117C004440A3B214F00F0440F0D88013F0100FC9
:10118C0061D003889AB213F4006F40F0938012F48C
:10119C00004FE5D0038823F070031B051B0D43F0B3
:1011AC00800303802868B0F850309BB295F8682112
:1011BC0003EBC203063300EB4303B3F80034C3F371
:1011CC000903C5F884318BB1D5F87C1171B1B5F830
:1011DC006E2101F0FDFBD5F88421D5F87C31134448
:1011EC00C5F87C3100212846FFF786FB2B681A884E
:1011FC0012F4006FB4D1B3F8502092B21344D5F866
:10120C007821002A79D1B3F80C2492B222F4F84256
:10121C0092B2A3F80C24B3F80C246FEA42426FEAA2
:10122C00524292B2A3F80C242A6813889BB223F47E
:10123C00804323F0700383F4405343F4004343F0A2
:10124C00800313808CE703889BB223F4E14323F0E3
:10125C0070036FEA43436FEA53439BB203802A68DF
:10126C00B2F850309BB295F8281003EBC10302334F
:10127C0002EB4303B3F80034C3F309036B64EA6B6A
:10128C001344EB6300212846FFF742FB95F824300A
:10129C00002B3FF465AF2B6C002B7FF461AF95F8FE
:1012AC0024302A6843F08003A2F84C30002385F8E0
:1012BC00243055E7B0F850309BB295F8682103EB19
:1012CC00C203063300EB4303B3F80034C3F3090342
:1012DC00C5F88431B5F86E2105F52C7101F078FB59
:1012EC002A68138823F070031B051B0D43F0800341
:1012FC0013802846FFF7F8FA32E73E2A09D851083E
:10130C0012F0010F00D001318A0292B2A3F80C2422
:10131C008AE7510912F01F0F00D101396FEAC1623F
:10132C006FEA524292B2A3F80C247DE730F82430D5
:10133C009EB213F4004F4FD116F0800F3FF410AF54
:10134C00621C02EB820105EBC101286830F82430E5
:10135C009BB223F4E14323F070036FEA43436FEA3B
:10136C0053439BB220F82430CB78032B07D033B1F6
:10137C00022B40F0068116F4807F40F00281286831
:10138C00B0F850309BB2621C02EB820215F832604E
:10139C0003EBC603023300EB4303B3F80034C3F38F
:1013AC00090304EB840205EBC202126C9A4240F270
:1013BC00D48004EB840705EBC707D21A3A6404EB1C
:1013CC00840205EBC202126C002A40F0CD8031463B
:1013DC002846FFF79DFAC3E630F8243023F070035B
:1013EC001B051B0D43F0800320F8243004EB840113
:1013FC00C90001F5B47105EB010804EB840305EB9E
:10140C00C30393F87431002B42D12868B0F85030E4
:10141C009BB204EB840205EBC20292F8682103EB49
:10142C00C203063300EB4303B3F80074C7F3090798
:10143C0017BB04EB840305EBC303D3F884213A44B4
:10144C00C3F88421D3F87C213A44C3F87C21D3F827
:10145C0080313BB104EB840305EBC303D3F8783143
:10146C009F4275D204EB840305EBC30393F8681118
:10147C002846FFF741FA5FE704EB840105EBC10155
:10148C003B46B1F86E21D1F87C1101F0A1FAD0E7FE
:10149C0004EB840305EBC30393F86B31022B35D0BB
:1014AC00296804EB840205EBC20292F8680131F85A
:1014BC0020309BB223F4E04323F0700343F4004349
:1014CC0043F0C00321F82030286892F8682130F8E6
:1014DC00223013F4804F20D0B0F850309BB203EB85
:1014EC00C203023300EB4303B3F80074C7F30907DC
:1014FC00002F9ED004EB840105EBC1013B46B1F8F3
:10150C007021D1F87C1101F063FA92E73246414622
:10151C002846FFF7DFFA07468BE7B0F850309BB24E
:10152C0003EBC203063300EB4303B3F80074C7F3B9
:10153C000907002F3FF47DAF04EB840105EBC101DB
:10154C003B46B1F87221D1F87C1101F041FA70E7F9
:10155C004146286800F0E3FDEEE604EB840205EB5F
:10156C00C202002717642AE704EB840205EBC202CF
:10157C00D66B1E44D663546C2344536400F0CFFDE9
:10158C00EEE532462846FFF7D8FBE9E50020BDE83A
:10159C00F08190F8A832012B0DD010B50446012330
:1015AC0080F8A83280F82410006800F094FD002028
:1015BC0084F8A80210BD0220704710B584B0044610
:1015CC00006800F092FD10F4004F47D1206800F045
:1015DC008CFD10F4806F45D1206800F086FD10F46E
:1015EC00804F08D02268B2F844309BB223F4804379
:1015FC009BB2A2F84430206800F077FD10F4005F35
:10160C0008D02268B2F844309BB223F400539BB24A
:10161C00A2F84430206800F068FD10F4805F32D1ED
:10162C00206800F062FD10F4006F78D1206800F0A3
:10163C005CFD10F4007F40F09D80206800F055FDAB
:10164C0010F4807F08D02268B2F844309BB223F4A7
:10165C0080739BB2A2F8443004B010BD2046FFF753
:10166C007CFDB3E72268B2F844309BB223F480636C
:10167C009BB2A2F844302046FFF75BF900212046CC
:10168C00FFF787FFA8E72268B2F840309BB223F03F
:10169C0004039BB2A2F840302268B2F840309BB2EF
:1016AC0023F008039BB2A2F840302046FFF764F900
:1016BC002268B2F844309BB223F480539BB2A2F858
:1016CC004430ADE7226832F8231004AA02EB43023F
:1016DC0022F8101C0133DBB2072BF3D92268B2F8C5
:1016EC0040309BB243F00103A2F840302268B2F8BC
:1016FC0040309BB223F001039BB2A2F84030236828
:10170C00B3F8442012F4806FF9D0B3F8442092B2AD
:10171C0022F4806292B2A3F8442000230BE0002351
:10172C00DAE7226804A901EB430131F8101C22F816
:10173C0023100133DBB2072BF3D92268B2F8403007
:10174C009BB243F00803A2F840302268B2F8443050
:10175C009BB223F400639BB2A2F844302268B2F827
:10176C0040309BB243F00403A2F840302046FFF710
:10177C00F3F85BE72268B2F844309BB223F40073B1
:10178C009BB2A2F844302046FFF7CDF855E710B5D0
:10179C0004468C4611F0800F2AD101F0070000EBB3
:1017AC008001C90001F5B47E04EB0E0100EB800052
:1017BC0004EBC0004FF0000E80F869E10CF0070C50
:1017CC0081F800C00A61CB704A780AB1A1F80EC04A
:1017DC00022B19D094F8A832012B18D0012384F8CD
:1017EC00A832206800F05AF9002084F8A80210BD35
:1017FC0001F00700013000EB800104EBC1014FF058
:10180C00010E81F801E0D9E700230B71E2E7022019
:10181C00EDE710B504460B4611F0800F1FD101F017
:10182C00070202EB8201C90001F5B471014402EB1D
:10183C00820200EBC202002082F8690103F0070368
:10184C000B7094F8A832012B13D0012384F8A83222
:10185C00206800F0DFFA002084F8A80210BD01F027
:10186C000702013202EB820100EBC101012048703A
:10187C00E4E70220F2E710B501F0070404EB840161
:10188C00C90001F5B471014404EB840C00EBCC0CE1
:10189C00CCF87C21CCF880310023CCF884318CF846
:1018AC0069318CF8684124B9006800F038FC0020DC
:1018BC0010BD006800F033FCF9E701F0070101EB03
:1018CC00810100EBC101D1F88401704710B501F022
:1018DC00070404F1010C0CEB8C0100EBC10104EBCF
:1018EC00840E00EBCE0ECEF83C20CEF84030012218
:1018FC008EF84C20CEF848300023CEF844304A7095
:10190C000CEB8C0C00F83C4024B9006800F007FC90
:10191C00002010BD006800F002FCF9E738B501F0BA
:10192C0007054268954231D804460B4611F0800FEA
:10193C001ED101EB8101C90001F5B471014403EB27
:10194C00830300EBC303002283F8692101238B700E
:10195C000D7094F8A832012B1AD0012384F8A83208
:10196C00206800F042FB5DB1002084F8A80238BD6D
:10197C006B1C03EB830100EBC10101224A70E5E70C
:10198C0004F52C71206800F0B4FBEDE70120EEE7C4
:10199C000220ECE70B4601F00F014268914230D86F
:1019AC0010B5044613F0800F21D103F0070202EBAF
:1019BC008201C90001F5B471014402EB820200EB13
:1019CC00C202002082F8690100228A7003F007032A
:1019DC000B7094F8A832012B15D0012384F8A8328F
:1019EC00206800F027FB002084F8A80210BD03F04B
:1019FC000702013202EB820100EBC10101204870A9
:101A0C00E2E7012070470220F0E711F0800F0BD0C5
:101A1C0001F00701013101EB810100EBC10152B969
:101A2C000A73CB800020704701EB8101C90001F5DE
:101A3C00B4710144F3E701220A730B811B0C4B8137
:101A4C00F0E784B001A880E80E00002004B07047D5
:101A5C0003460020A3F844004FF43F42A3F8402073
:101A6C007047B0F8403023F47C535B045B0CA0F857
:101A7C004030002070470020704784B0844601A895
:101A8C0080E80E000123ACF840300020ACF8400098
:101A9C00ACF84400ACF8500004B0704710B50346E5
:101AAC0091F800C030F82C2092B222F4EC4222F0D3
:101ABC00700292B2C878032861D8DFE800F0555C58
:101ACC000258002048F2800E42EA0E0223F82C2025
:101ADC0091F800C033F82C2092B222F4E04222F0AC
:101AEC0070024CEA020242EA0E0223F82C200A7B16
:101AFC00002A40F0C4804A78002A51D0B3F8502014
:101B0C0092B21A440C7802EB0412B1F806C04FEAF8
:101B1C005C0C4FEA4C0CA2F800C40C7833F824206F
:101B2C0012F0400F0CD033F8242092B222F4E04291
:101B3C0022F0700242F4004242F0C00223F824204A
:101B4C00CA78012A1DD0097833F8212092B222F4E8
:101B5C00E04222F0400282F0200242F4004242F0C5
:101B6C00800223F821206AE042F40072AAE742F4D2
:101B7C00C0620020A6E742F480620020A2E70120A8
:101B8C00A0E7097833F8212092B222F4E04222F047
:101B9C00400242F4004242F0800223F821204EE041
:101BAC00B3F8502092B21A440C7802EB0412B1F83C
:101BBC0006C04FEA5C0C4FEA4C0CA2F808C4B3F810
:101BCC00502092B21A440C7802EB04120C69BCBB84
:101BDC00B2F80CC41FFA8CFC2CF4F84C1FFA8CFCD9
:101BEC00A2F80CC4B2F80CC46FEA4C4C6FEA5C4C13
:101BFC001FFA8CFCA2F80CC40C7833F8242012F4D5
:101C0C00804F0CD033F8242092B222F4E04222F020
:101C1C00700242F4404242F0800223F824200978FA
:101C2C0033F8212092B222F4804222F0700282F426
:101C3C00405242F4004242F0800223F8212010BDB1
:101C4C003E2C0DD84FEA540C14F0010F01D00CF1BE
:101C5C00010C4FEA8C2C1FFA8CFCA2F80CC4CBE7BD
:101C6C004FEA541C14F01F0F01D10CF1FF3C6FEA2A
:101C7C00CC646FEA5444A4B2A2F80C44BCE791F8CB
:101C8C0000C033F82C2092B222F4E04222F0700211
:101C9C0042F4014242F0800223F82C20B3F8502089
:101CAC0092B21A4491F800C002EB0C12B1F808C0C1
:101CBC004FEA5C0C4FEA4C0CA2F800C4B3F850206D
:101CCC0092B21A4491F800C002EB0C12B1F80AC09F
:101CDC004FEA5C0C4FEA4C0CA2F808C44A78002A74
:101CEC0041D10C7833F8242012F4804F0CD033F807
:101CFC00242092B222F4E04222F0700242F44042DC
:101D0C0042F0800223F824200C7833F8242012F0BF
:101D1C00400F0CD033F8242092B222F4E04222F08F
:101D2C00700242F4004242F0C00223F8242091F8E1
:101D3C0000C033F82C2092B222F4804222F07002C0
:101D4C0082F4405248F28004224323F82C20097874
:101D5C0033F8212092B222F4E04222F040022243D6
:101D6C0023F821206BE70C7833F8242012F4804FF1
:101D7C000CD033F8242092B222F4E04222F070020C
:101D8C0042F4404242F0800223F824200C7833F8CD
:101D9C00242012F0400F0CD033F8242092B222F4FD
:101DAC00E04222F0700242F4004242F0C00223F8FA
:101DBC002420CA78012A1ED00C7833F8242092B241
:101DCC0022F4E04222F0400282F0200242F400426F
:101DDC0042F0800223F82420097833F8212092B2B3
:101DEC0022F4804222F0700242F4004242F080025F
:101DFC0023F8212023E70C7833F8242092B222F424
:101E0C00E04222F0400242F4004242F0800223F809
:101E1C002420E1E70B7B002B46D14B7813B30A78D7
:101E2C0030F8223013F0400F0CD030F822309BB237
:101E3C0023F4E04323F0700343F4004343F0C00366
:101E4C0020F822300A7830F822309BB223F4E04399
:101E5C0023F0400343F4004343F0800320F8223086
:101E6C00002070470A7830F8223013F4804F0CD0E1
:101E7C0030F822309BB223F4E04323F0700343F498
:101E8C00404343F0800320F822300A7830F82230A7
:101E9C009BB223F4804323F0700343F4004343F0DC
:101EAC00800320F82230DBE74B78002B4ED10A78E8
:101EBC0030F8223013F4804F0CD030F822309BB223
:101ECC0023F4E04323F0700343F4404343F08003D6
:101EDC0020F822300A7830F8223013F0400F0CD062
:101EEC0030F822309BB223F4E04323F0700343F428
:101EFC00004343F0C00320F822300A7830F8223037
:101F0C009BB223F4E04323F0700343F4004343F00B
:101F1C00C00320F822300B7830F8232092B222F440
:101F2C00804222F0700248F2800C42EA0C0220F847
:101F3C0023200A7830F822309BB223F4E04323F0BC
:101F4C00400343EA0C0320F8223089E70A7830F882
:101F5C00223013F4804F0CD030F822309BB223F493
:101F6C00E04323F0700343F4404343F0800320F834
:101F7C0022300A7830F8223013F0400F0CD030F8B1
:101F8C0022309BB223F4E04323F0700343F400436C
:101F9C0043F0C00320F822300A7830F822309BB28C
:101FAC0023F4E04323F0700343F4404343F08003F5
:101FBC0020F822300B7830F8232092B222F4E04241
:101FCC0022F0400248F2800C42EA0C0220F8232056
:101FDC000A7830F822309BB223F4804323F070034C
:101FEC0043EA0C0320F822303AE74B788BB10A789D
:101FFC0030F822309BB223F4E04323F0400383F00B
:10200C00100343F4004343F0800320F822300020F7
:10201C0070470A7830F822309BB223F4804323F0C7
:10202C00700383F4805343F4004343F0800320F89F
:10203C002230ECE70B7B002B4BD14B7833B30A7877
:10204C0030F8223013F0400F0CD030F822309BB215
:10205C0023F4E04323F0700343F4004343F0C00344
:10206C0020F82230CB78012B33D00A7830F822308C
:10207C009BB223F4E04323F0400383F0200343F4AA
:10208C00004343F0800320F8223022E00A7830F835
:10209C00223013F4804F0CD030F822309BB223F452
:1020AC00E04323F0700343F4404343F0800320F8F3
:1020BC0022300A7830F822309BB223F4804323F08C
:1020CC00700383F4405343F4004343F0800320F83F
:1020DC0022300020704711B98023A0F84C3000202A
:1020EC0070470020704700207047B0F8440080B261
:1020FC0070470020704710B45C1C640800EB42026F
:10210C0002F5806207E00B78487843EA002322F856
:10211C00043B0231013C002CF5D110BC704770B56A
:10212C0005460C464B78012B37D00A7B002A40F031
:10213C0026838B690A69934240F204839B1A8B6154
:10214C00B5F850309BB22B44217803EB0113002AD5
:10215C0040F0FC82B3F80C2492B222F4F84292B212
:10216C00A3F80C24B3F80C246FEA42426FEA5242F3
:10217C0092B2A3F80C24227835F822309BB223F4C7
:10218C00804323F0700383F4405343F4004343F043
:10219C00800325F82230002070BD8E690A699642B2
:1021AC0000D91646237B002B39D0E378022B58D06C
:1021BC00227835F822309BB223F4E04323F07003ED
:1021CC0043F4014343F0800325F82230236A9B1B20
:1021DC002362237835F8232012F0400F00F026827A
:1021EC006278002A40F0CA81B5F8502092B22A4495
:1021FC0002EB0313002E40F0A881B3F80C2492B22A
:10220C0022F4F84292B2A3F80C24B3F80C246FEA2F
:10221C0042426FEA524292B2A3F80C24B0E1B6B239
:10222C003346E28861692846FFF765FFB5F8503000
:10223C009BB22B44227803EB0213A3F8046422789C
:10224C0035F822309BB223F4E04323F0400383F0B3
:10225C00300343F4004343F0800325F82230002080
:10226C009AE7236A9A4280F05281227835F822301C
:10227C009BB223F4E04323F0700343F4014343F097
:10228C00800325F82230236A9B1B2362237835F8C0
:10229C00232012F0400F00F09D8062788ABBB5F8C5
:1022AC00502092B22A4402EB03138EB9B3F80C24DB
:1022BC0092B222F4F84292B2A3F80C24B3F80C2494
:1022CC006FEA42426FEA524292B2A3F80C241AE02F
:1022DC003E2E09D8720816F0010F00D0013292027E
:1022EC0092B2A3F80C240EE0720916F01F0F00D165
:1022FC00013A6FEAC2626FEA524292B2A3F80C241E
:10230C0001E0012A2BD0B3B2628961692846FFF73C
:10231C00F2FE636933446361236A2269934228D9CC
:10232C009B1B23626378002B40D1B5F850309BB2D5
:10233C002B44227803EB0213FEB9B3F8042492B2B7
:10234C0022F4F84292B2A3F80424B3F804246FEAFE
:10235C0042426FEA524292B2A3F8042428E0B5F844
:10236C00502092B22A4402EB0313B2B2A3F80C240D
:10237C00C9E7002222621E46D4E73E2E09D8720815
:10238C0016F0010F00D00132920292B2A3F804248D
:10239C000EE0720916F01F0F00D1013A6FEAC2620B
:1023AC006FEA524292B2A3F8042401E0012B06D04A
:1023BC00B3B2228961692846FFF79DFE3FE7B5F865
:1023CC0050309BB22B44227803EB0213B2B2A3F829
:1023DC000424EDE762788ABBB5F8502092B22A4407
:1023EC0002EB03138EB9B3F8042492B222F4F84230
:1023FC0092B2A3F80424B3F804246FEA42426FEAC1
:10240C00524292B2A3F804241AE03E2E09D8720864
:10241C0016F0010F00D00132920292B2A3F80424FC
:10242C000EE0720916F01F0F00D1013A6FEAC2627A
:10243C006FEA524292B2A3F8042401E0012A2BD095
:10244C00B3B2228961692846FFF755FE63693344AC
:10245C006361236A2269934228D99B1B23626378A8
:10246C00002B40D1B5F850309BB22B44227803EBB3
:10247C000213FEB9B3F80C2492B222F4F84292B2D1
:10248C00A3F80C24B3F80C246FEA42426FEA5242D0
:10249C0092B2A3F80C2428E0B5F8502092B22A444A
:1024AC0002EB0313B2B2A3F80424C9E700222262A0
:1024BC001E46D4E73E2E09D8720816F0010F00D044
:1024CC000132920292B2A3F80C240EE0720916F0BB
:1024DC001F0F00D1013A6FEAC2626FEA524292B208
:1024EC00A3F80C2401E0012B06D0B3B26289616918
:1024FC002846FFF700FEA2E6B5F850309BB22B44FD
:10250C00227803EB0213B2B2A3F80C24EDE7217886
:10251C0035F8212092B222F4E24222F0700242F409
:10252C00004242F0800225F82120B5F8502092B2EA
:10253C002A44217802EB01129BB2A2F804342289BE
:10254C0061692846FFF7D7FD79E63E2E09D8720857
:10255C0016F0010F00D00132920292B2A3F80C24B3
:10256C000EE0720916F01F0F00D1013A6FEAC26239
:10257C006FEA524292B2A3F80C2401E0012A26D051
:10258C00B3B2628961692846FFF7B5FD63693344CC
:10259C006361236A2269934223D99B1B2362002E19
:1025AC003FF44DAE63786BBBB5F850309BB22B4407
:1025BC00227803EB02133E2E17D8720816F0010F87
:1025CC0000D00132920292B2A3F804241CE0B5F8B8
:1025DC00502092B22A4402EB0313B2B2A3F80C249B
:1025EC00CEE7002222621E46D9E7720916F01F0FB1
:1025FC0000D1013A6FEAC2626FEA524292B2A3F87A
:10260C00042401E0012B06D0B3B22289616928466B
:10261C00FFF771FD13E6B5F850309BB22B442278CE
:10262C0003EB0213B2B2A3F80424EDE762788ABB81
:10263C00B5F8502092B22A4402EB03138EB9B3F8CA
:10264C00042492B222F4F84292B2A3F80424B3F810
:10265C0004246FEA42426FEA524292B2A3F8042475
:10266C001AE03E2E09D8720816F0010F00D0013284
:10267C00920292B2A3F804240EE0720916F01F0F16
:10268C0000D1013A6FEAC2626FEA524292B2A3F8E9
:10269C00042401E0012A26D0B3B2228961692846BC
:1026AC00FFF729FD636933446361236A226993420E
:1026BC0023D99B1B2362002E3FF4C1AD63786BBB07
:1026CC00B5F850309BB22B44227803EB02133E2E0C
:1026DC0017D8720816F0010F00D00132920292B294
:1026EC00A3F80C241CE0B5F8502092B22A4402EB5B
:1026FC000313B2B2A3F80424CEE7002222621E46D2
:10270C00D9E7720916F01F0F00D1013A6FEAC262C5
:10271C006FEA524292B2A3F80C2401E0012B06D0CE
:10272C00B3B2628961692846FFF7E5FC87E5B5F825
:10273C0050309BB22B44227803EB0213B2B2A3F8B5
:10274C000C24EDE700228A611A46F9E43E2A09D8E6
:10275C00510812F0010F00D00131890289B2A3F89F
:10276C000C1408E5510912F01F0F00D101396FEA62
:10277C00C1616FEA514189B2A3F80C14FBE4CA7829
:10278C00022A45D0012A40F02081896922699142B0
:10279C0040F2D480891AA161D3B9B5F850309BB2FC
:1027AC002B44217803EB0113002A40F0CB80B3F8C3
:1027BC00041489B221F4F84189B2A3F80414B3F8D3
:1027CC0004146FEA41416FEA514189B2A3F8041431
:1027DC006378002B40F0EA80B5F850309BB22B4464
:1027EC00217803EB0113002A40F0C580B3F80C24C8
:1027FC0092B222F4F84292B2A3F80C24B3F80C244F
:10280C006FEA42426FEA524292B2A3F80C24B2E44D
:10281C00CBB9B0F850309BB203440A7803EB0213E7
:10282C000A6972BBB3F8042492B222F4F84292B251
:10283C00A3F80424B3F804246FEA42426FEA52422C
:10284C0092B2A3F804246378002B4CD1B5F8503025
:10285C009BB22B44227803EB0213226952BBB3F8D0
:10286C000C2492B222F4F84292B2A3F80C24B3F8DE
:10287C000C246FEA42426FEA524292B2A3F80C2443
:10288C0033E03E2A09D8510812F0010F00D0013173
:10289C008A0292B2A3F80424D5E7510912F01F0F53
:1028AC0000D101396FEAC1626FEA524292B2A3F8C9
:1028BC000424C8E73E2A09D8510812F0010F00D0B1
:1028CC0001318A0292B2A3F80C240EE0510912F0E5
:1028DC001F0F00D101396FEAC1626FEA524292B206
:1028EC00A3F80C2401E0012B1DD0E369002B3FF46D
:1028FC0042AC227835F8221044F2400303EA01007E
:10290C008B4302D000287FF436AC35F822309BB2D2
:10291C0023F4E04323F0700343F4004343F0C0037B
:10292C0025F8223027E4B5F850309BB22B4422789E
:10293C0003EB0213228AA3F80C24D6E70022A2612F
:10294C000A4629E73E2A09D8510812F0010F00D097
:10295C000131890289B2A3F8041439E7510912F044
:10296C001F0F00D101396FEAC1616FEA514189B281
:10297C00A3F804142CE73E2A0AD8510812F0010FD0
:10298C0000D001318A0292B2A3F80C24FFF7F3BBFA
:10299C00510912F01F0F00D101396FEAC1626FEAC1
:1029AC00524292B2A3F80C24FFF7E5BB012B7FF443
:1029BC00E2ABB5F850309BB22B44217803EB0113FA
:1029CC0092B2A3F80C24FFF7D6BB0120FFF7E4BBAF
:1029DC0010B45C0800EB420000F5806007E030F8B2
:1029EC00042B0A70C2F307224A700231013C002CFE
:1029FC00F5D113F0010F01D003880B7010BC704798
:102A0C0010B504460E4B18784FF47A73B3FBF0F301
:102A1C000C4A1068B0FBF3F000F0D8FD68B90F2C2D
:102A2C0001D901200AE0002221464FF0FF3000F0CE
:102A3C0087FD054B1C60002000E0012010BD00BF8D
:102A4C0060000020680000206400002008B5074AE0
:102A5C00136843F010031360032000F05FFD0F2098
:102A6C00FFF7CEFFFDF70CFE002008BD0020024052
:102A7C00034A1168034B1B780B441360704700BF6B
:102A8C004C14002060000020014B1868704700BFF8
:102A9C004C14002082B0084B1B68084AA2FB03238D
:102AAC005B0A00FB03F3019300BF019B5A1E0192CA
:102ABC00002BF9D102B0704768000020D34D621092
:102ACC00002800F0F18170B582B00446036813F061
:102ADC00010F2CD0994B5B6803F00C03042B1DD019
:102AEC00964B5B6803F00C03082B12D06368B3F5AC
:102AFC00803F41D0002B55D103F1804303F50433C3
:102B0C001A6822F480321A601A6822F480221A6041
:102B1C0037E08A4B5B6813F4803FE7D0874B1B6828
:102B2C0013F4003F03D06368002B00F0BF812368CF
:102B3C0013F0020F75D0814B5B6813F00C0F5FD054
:102B4C007E4B5B6803F00C03082B54D02369002BDD
:102B5C0000F08A807A4B01221A60FFF795FF054638
:102B6C00764B1B6813F0020F75D1FFF78DFF401BDE
:102B7C000228F5D903209EE1704A136843F4803390
:102B8C001360636843B3FFF77FFF05466B4B1B680D
:102B9C0013F4003FCBD1FFF777FF401B6428F5D926
:102BAC00032088E1B3F5A02F09D0644B1A6822F4F6
:102BBC0080321A601A6822F480221A60E1E703F16D
:102BCC008043A3F53C331A6842F480221A601A68D9
:102BDC0042F480321A60D4E7FFF756FF0546574B94
:102BEC001B6813F4003FA2D0FFF74EFF401B642874
:102BFC00F5D903205FE1514B5B6813F4803FA5D1FD
:102C0C004E4B1B6813F0020F03D02369012B40F0CD
:102C1C004F814A4A136823F0F803616943EAC10300
:102C2C001360236813F0080F33D0A369002B5CD01A
:102C3C00434B0122C3F88024FFF726FF05463F4B88
:102C4C005B6A13F0020F21D1FFF71EFF401B022815
:102C5C00F5D903202FE1394A136823F0F803616991
:102C6C0043EAC1031360DCE7354B00221A60FFF71F
:102C7C000BFF0546314B1B6813F0020FD1D0FFF749
:102C8C0003FF401B0228F5D9032014E10120FFF7B4
:102C9C0001FF236813F0040F00F09680274BDB69CB
:102CAC0013F0805F34D1254BDA6942F08052DA613F
:102CBC00DB6903F080530193019B0125214B1B68B9
:102CCC0013F4807F26D0E368012B3DD0002B53D129
:102CDC0003F1804303F504331A6A22F001021A62ED
:102CEC001A6A22F004021A6233E0154B0022C3F870
:102CFC008024FFF7C9FE0546104B5B6A13F0020FE8
:102D0C00C7D0FFF7C1FE401B0228F5D90320D2E043
:102D1C000025D3E70B4A136843F480731360FFF765
:102D2C00B3FE0646074B1B6813F4807FCBD1FFF72D
:102D3C00ABFE801B6428F5D90320BCE000100240D8
:102D4C0000004242007000405F4A136A43F00103E6
:102D5C001362E36833B3FFF797FE06465A4B1B6AC0
:102D6C0013F0020F2FD1FFF78FFE801B41F2883337
:102D7C009842F3D903209EE0052B09D0524B1A6AD6
:102D8C0022F001021A621A6A22F004021A62E0E7C7
:102D9C004D4B1A6A42F004021A621A6A42F001029E
:102DAC001A62D6E7FFF770FE0646474B1B6A13F014
:102DBC00020F08D0FFF768FE801B41F2883398425F
:102DCC00F3D9032077E0E5B9E369002B72D03E4AD2
:102DDC00526802F00C02082A56D0022B17D03B4B3B
:102DEC0000221A66FFF750FE0446374B1B6813F09F
:102DFC00007F47D0FFF748FE001B0228F5D90320BF
:102E0C0059E0314AD36923F08053D361DCE72F4B6F
:102E1C0000221A66FFF738FE05462B4B1B6813F091
:102E2C00007F06D0FFF730FE401B0228F5D90320A7
:102E3C0041E0236AB3F5803F1AD023494B6823F451
:102E4C007413226A606A024313434B601F4B0122C6
:102E5C001A66FFF719FE04461B4B1B6813F0007F24
:102E6C000ED1FFF711FE001B0228F5D9032022E03A
:102E7C00154A536823F40033A1680B435360DCE715
:102E8C00002018E0002016E0012B16D00E4B5B68DA
:102E9C0003F48031226A914211D103F47013626AF7
:102EAC0093420ED1002006E001207047012002E081
:102EBC00012000E0002002B070BD0120FBE70120E2
:102ECC00F9E70120F7E700BF001002400000424282
:102EDC0086B0174B0FCB0DF1180C0CE90F0040F21C
:102EEC000123ADF80430134B5B6803F00C02082A85
:102EFC0002D0114806B07047C3F3834218326A44BB
:102F0C0012F8100C13F4803F0DD00A4B5B68C3F31E
:102F1C00404318336B4413F8143C074A02FB00F08F
:102F2C00B0FBF3F0E6E7054B03FB00F0E2E700BF74
:102F3C00EC6900080010024000127A0000093D0004
:102F4C00002800F0A08070B50D460446524B1B685B
:102F5C0003F007038B420BD24F4A136823F007038D
:102F6C000B431360136803F007038B4240F08D8012
:102F7C00236813F0020F17D013F0040F04D0474A44
:102F8C00536843F4E0635360236813F0080F04D0D4
:102F9C00424A536843F460535360404A536823F0E9
:102FAC00F003A1680B435360236813F0010F31D079
:102FBC006368012B20D0022B25D0384A126812F0FE
:102FCC00020F64D035494A6822F0030213434B6068
:102FDC00FFF75AFD0646314B5B6803F00C03626841
:102FEC00B3EB820F16D0FFF74FFD801B41F28833F5
:102FFC009842F0D9032045E0284A126812F4003FA9
:10300C00E0D101203EE0254A126812F0007FD9D1B0
:10301C00012037E0204B1B6803F00703AB420AD9B1
:10302C001D4A136823F007032B431360136803F046
:10303C000703AB422DD1236813F0040F06D0174AB7
:10304C00536823F4E063E1680B435360236813F087
:10305C00080F07D0114A536823F46053216943EADF
:10306C00C1035360FFF734FF0C4B5B68C3F30313CE
:10307C000B4AD35CD8400B4B18600B4B1868FFF70E
:10308C00BFFC002070BD012070470120FAE7012031
:10309C00F8E70120F6E700BF0020024000100240D4
:1030AC00006A00086800002064000020014B1868CA
:1030BC00704700BF6800002008B5FFF7F7FF044B0E
:1030CC005B68C3F30223034AD35CD84008BD00BF3E
:1030DC0000100240106A000808B5FFF7E7FF044B28
:1030EC005B68C3F3C223034AD35CD84008BD00BF5E
:1030FC0000100240106A000870B582B004460368E4
:10310C0013F0010F36D03F4BDB6913F0805F49D1D0
:10311C003C4BDA6942F08052DA61DB6903F0805390
:10312C000193019B0125384B1B6813F4807F3BD026
:10313C00344B1B6A13F4407313D0626802F4407270
:10314C009A420ED02F4A136A23F440702F4901265D
:10315C00C1F840640026C1F84064106213F0010FFE
:10316C0036D1284A136A23F4407361680B43136207
:10317C00002D3ED1236813F0020F06D0214A53686C
:10318C0023F44043A1680B435360236813F0100FE2
:10319C0034D01C4A536823F48003E1680B4353601A
:1031AC0000202CE00025BEE7174A136843F4807317
:1031BC001360FFF769FC0646134B1B6813F4807F02
:1031CC00B6D1FFF761FC801B6428F5D9032016E00B
:1031DC00FFF75AFC06460B4B1B6A13F0020FC0D1CB
:1031EC00FFF752FC801B41F288339842F3D903203D
:1031FC0005E0D36923F08053D361BBE7002002B014
:10320C0070BD00BF00100240007000400000424240
:10321C0070B582B00024A446A6E0804DAA4210D01E
:10322C0007D97F4DAA420CD005F58035AA4208D0AB
:10323C0013E0A5F58015AA4203D005F57025AA4226
:10324C0007D18A68002A58D0012A51D0436108243A
:10325C0003E0A5F58015AA42F3D0BEF1FF0F4ED8BE
:10326C000646BEF1FF0F4CD84FEA8C0233680F258F
:10327C00954023EA050304FA02F2134333604B68CA
:10328C0013F0805F6ED0674B9A6942F001029A612D
:10329C009B6903F001030193019B4FEA9C02951C6F
:1032AC00614B53F825600CF003039D000F23AB40DA
:1032BC0026EA03065D4B984229D003F580639842B9
:1032CC0000F08E8003F58063984200F08B8003F54C
:1032DC008063984219D004231AE0CC68BDE7CC680F
:1032EC000434BAE7CC680834B7E7CC680C34B4E7DC
:1032FC0003610824B1E70024AFE70424ADE7061D01
:10330C00AFE7ACF108029200B0E7032300E0002322
:10331C00AB4033430232444D45F822304B6813F432
:10332C00803F61D0424A136843EA0E0313604B6836
:10333C0013F4003F5ED03E4A536843EA0E035360D9
:10334C004B6813F4801F5BD0394A936843EA0E0331
:10335C0093604B6813F4001F58D0354AD36843EA86
:10336C000E03D3600CF1010C0A6832FA0CF353D043
:10337C00012303FA0CF302EA030E33EA0202F1D141
:10338C004A68122A3FF649AF122A3FF666AF01A5EA
:10339C0055F822F04F320008E7320008F1320008ED
:1033AC0003330008673200086732000867320008F0
:1033BC00673200086732000867320008673200087D
:1033CC00673200086732000867320008673200086D
:1033DC006732000867320008EB320008F732000849
:1033EC00012395E7022393E7114A136823EA0E039E
:1033FC0013609CE70E4A536823EA0E0353609FE761
:10340C000B4A936823EA0E039360A2E7084AD36839
:10341C0023EA0E03D360A5E702B070BD00002210B2
:10342C000000311000100240000001400008014073
:10343C00000401400AB10161704709040161704741
:10344C0090F82130022B06D004238363002380F8EC
:10345C002030012070470268136823F00E031360BC
:10346C000268136823F001031360036CC16B012223
:10347C0002FA03F34B6080F82120002380F82030FF
:10348C001846704708B590F82130022B03D004235E
:10349C008363012008BD0268136823F00E031360D8
:1034AC000268136823F0010313600368194A9342FE
:1034BC0014D0143293421FD0143293421ED01432C3
:1034CC0093421ED0143293421ED01432934202D037
:1034DC004FF0807203E04FF4801200E001220E4B9B
:1034EC005A60012380F82130002380F82030436B90
:1034FC006BB198470020CDE71022F0E74FF48072B3
:10350C00EDE74FF48052EAE74FF48032E7E7002012
:10351C00C0E700BF0800024000000240074AD36821
:10352C0023F4E0631B041B0C000200F4E060034373
:10353C0043F0BF6343F40033D360704700ED00E009
:10354C0000B5194BDB68C3F30223C3F1070CBCF1C4
:10355C00040F28BF4FF0040C03F1040EBEF1060F4C
:10356C0018D9033B4FF0FF3E0EFA0CFC21EA0C017C
:10357C0099400EFA03F322EA0303194300280BDBEC
:10358C000901C9B200F1604000F5614080F80013F8
:10359C005DF804FB0023E5E700F00F000901C9B258
:1035AC00024B1954F4E700BF00ED00E014ED00E00D
:1035BC00002807DB00F01F02400901239340024A58
:1035CC0042F82030704700BF00E100E00138B0F154
:1035DC00807F0BD24FF0E0235861054AF02182F82E
:1035EC0023100020986107221A6170470120704750
:1035FC0000ED00E070B4036A23F001030362036A78
:10360C004668826922F073020C6844EA020523F0D2
:10361C0002028B6813430D4CA04209D00B4CA04204
:10362C000DD0466085614A684263036270BC704786
:10363C0023F00803CA68134323F00403EEE726F4CF
:10364C0040764A6932438E691643EAE7002C014002
:10365C0030B4036A23F480730362036A4568C26959
:10366C0022F073020C68224323F400738C6843EA43
:10367C0004230F4CA04209D00D4CA0420ED0456043
:10368C00C2614A68C263036230BC704723F40063B2
:10369C00CC6843EA042323F48063EDE725F440551A
:1036AC004C6945EA04158C6945EA0415E7E700BF47
:1036BC00002C014030B4036A23F480530362036A84
:1036CC004468C26922F4E6420D6842EA052223F4FA
:1036DC0000538D6843EA0533074DA84206D0446079
:1036EC00C2614A680264036230BC704724F48044AF
:1036FC004D6944EA8514F2E7002C014010B4036ACA
:10370C00046A24F001040462846924F0F00C4CEA8D
:10371C00021223F00A030B438261036210BC704750
:10372C0010B4046A24F0100404628469036A24F45B
:10373C00704C4CEA023223F0A00343EA011382617D
:10374C00036210BC7047836823F070030B4343F093
:10375C000703836070477047704770477047704726
:10376C00704710B5044603681A6912F0020F11D0A5
:10377C00DA6812F0020F0DD06FF002021A61012309
:10378C00037703689B6913F0030F70D0FFF7E6FF14
:10379C000023237723681A6912F0040F12D0DA6819
:1037AC0012F0040F0ED06FF004021A61022323777B
:1037BC0023689B6913F4407F5FD02046FFF7CEFF50
:1037CC000023237723681A6912F0080F12D0DA68E5
:1037DC0012F0080F0ED06FF008021A610423237741
:1037EC002368DB6913F0030F4ED02046FFF7B6FFBA
:1037FC000023237723681A6912F0100F12D0DA68AD
:10380C0012F0100F0ED06FF010021A6108232377FC
:10381C002368DB6913F4407F3DD02046FFF79EFF01
:10382C000023237723681A6912F0010F03D0DA689A
:10383C0012F0010F36D123681A6912F0800F03D0F1
:10384C00DA6812F0800F34D123681A6912F0400F35
:10385C0003D0DA6812F0400F32D123681A6912F0E3
:10386C00200F03D0DA6812F0200F30D110BDFFF713
:10387C0074FF2046FFF773FF8AE72046FFF76DFFC2
:10388C002046FFF76CFF9BE72046FFF766FF2046BC
:10389C00FFF765FFACE72046FFF75FFF2046FFF719
:1038AC005EFFBDE76FF001021A612046FFF754FF7F
:1038BC00C1E76FF080021A61204600F00EFBC3E7EF
:1038CC006FF040021A612046FFF74AFFC5E76FF020
:1038DC0020021A61204600F0FFFAC7E703681B4A72
:1038EC0090420AD0B0F1804F07D0A2F594329042AA
:1038FC0003D002F58062904203D123F070034A6832
:10390C001343124A90420AD0B0F1804F07D0A2F56F
:10391C009432904203D002F58062904203D123F49A
:10392C004073CA68134323F080034A69134303604E
:10393C008B68C3620B688362044B984202D00123EC
:10394C00436170470B690363F9E700BF002C01402A
:10395C0040B310B5044690F83D30F3B1022384F81F
:10396C003D30214651F8040BFFF7B8FF012384F8D2
:10397C00463084F83E3084F83F3084F8403084F888
:10398C00413084F8423084F8433084F8443084F871
:10399C00453084F83D30002010BD80F83C3001F0FB
:1039AC0087FCDBE70120704740B310B5044690F864
:1039BC003D30F3B1022384F83D30214651F8040B1D
:1039CC00FFF78CFF012384F8463084F83E3084F8EE
:1039DC003F3084F8403084F8413084F8423084F829
:1039EC00433084F8443084F8453084F83D3000206E
:1039FC0010BD80F83C30FFF7AEFEDBE701207047CE
:103A0C0030B4036A23F010030362036A44688269CA
:103A1C0022F4E6420D6842EA052223F020038D6869
:103A2C0043EA05130E4DA84209D00D4DA8420ED005
:103A3C00446082614A688263036230BC704723F041
:103A4C008003CD6843EA051323F04003EDE724F42B
:103A5C0040644D6944EA85048D6944EA8504E7E7CE
:103A6C00002C014038B590F83C30012B60D0044656
:103A7C000D46012380F83C300C2A1AD8DFE802F0FE
:103A8C00071919191D191919311919194400006848
:103A9C00FFF7B0FD2268936943F008039361226835
:103AAC00936923F0040393612268936929690B439A
:103ABC009361002084F83C0038BD0068FFF7A0FF3C
:103ACC002268936943F4006393612268936923F439
:103ADC008063936122689369296943EA01239361A6
:103AEC00E7E70068FFF7B4FD2268D36943F00803E9
:103AFC00D3612268D36923F00403D3612268D369AC
:103B0C0029690B43D361D4E70068FFF7D3FD226822
:103B1C00D36943F40063D3612268D36923F48063CF
:103B2C00D3612268D369296943EA0123D361C0E7D1
:103B3C000220C1E710B4846824F47F4C42EA0322CB
:103B4C000A4342EA0C02826010BC704790F83C3089
:103B5C00012B66D010B50446012380F83C300223BB
:103B6C0080F83D300268936823F47F4323F0770399
:103B7C0093600B68602B40D022D8402B47D00BD9D8
:103B8C00502B0ED1CA6849680068FFF7B7FD502169
:103B9C002068FFF7D8FD04E0202B0CD008D9302B7F
:103BAC0009D0012384F83D30002084F83C0010BD7E
:103BBC000BB1102BF5D119462068FFF7C4FDF0E7C7
:103BCC00702B0ED0B3F5005FEBD1CB684A688968D7
:103BDC000068FFF7AFFF2268936843F4804393605B
:103BEC00DFE7CB684A6889680068FFF7A3FF2268A3
:103BFC00936843F077039360D3E7CA684968006819
:103C0C00FFF78EFD60212068FFF79DFDC9E7CA68AC
:103C1C0049680068FFF772FD40212068FFF793FDAB
:103C2C00BFE70220704701F01F01012303FA01FCDA
:103C3C00036A23EA0C030362036A02FA01F10B43E1
:103C4C000362704710B50446084651BB94F83E30E9
:103C5C00DBB2013B18BF0123002B5BD1002839D10B
:103C6C00022384F83E30012201462068FFF7DBFF77
:103C7C0023682A4A93423DD02368284A93423ED077
:103C8C00B3F1804F3BD0A2F59432934237D002F57A
:103C9C008062934233D01A6842F001021A6000200D
:103CAC0039E0042908D008290DD094F84130DBB252
:103CBC00013B18BF0123CFE794F83F30DBB2013B47
:103CCC0018BF0123C8E794F84030DBB2013B18BFA2
:103CDC000123C1E7042805D0082807D0022384F863
:103CEC004130C0E7022384F83F30BCE7022384F85C
:103CFC004030B8E75A6C42F400425A64BCE79A6808
:103D0C0002F00702062A07D01A6842F001021A6074
:103D1C00002000E0012010BD0020FCE7002C014039
:103D2C0038B504460D4600220068FFF77CFF236877
:103D3C001B4A934214D02368196A41F211121142A2
:103D4C0008D1196A40F24442114203D11A6822F098
:103D5C0001021A609DB9012384F83E30002038BD61
:103D6C00196A41F211121142E5D1196A40F244422A
:103D7C001142E0D15A6C22F400425A64DBE7042D64
:103D8C0005D0082D07D0012384F84130E6E7012344
:103D9C0084F83F30E2E7012384F84030DEE700BFCF
:103DAC00002C014038B505460C460C290DD8DFE82F
:103DBC0001F0070C0C0C2A0C0C0C300C0C0C360003
:103DCC000268D36823F00203D360002221462868DE
:103DDC00FFF729FF2B68244A934226D02B68196AD7
:103DEC0041F21112114208D1196A40F244421142B7
:103DFC0003D11A6822F001021A602CBB012385F84A
:103E0C003E30002038BD0268D36823F00403D36031
:103E1C00DBE70268D36823F00803D360D5E70268B8
:103E2C00D36823F01003D360CFE7196A41F2111263
:103E3C001142D3D1196A40F244421142CED15A6C8C
:103E4C0022F400425A64C9E7042C05D0082C07D090
:103E5C00012385F84130D4E7012385F83F30D0E7C2
:103E6C00012385F84030CCE7002C014090F83C3021
:103E7C00012B2CD010B4012380F83C30022380F8A5
:103E8C003D3003685A689C6822F0700C0A6842EA5C
:103E9C000C025A6003680F4A93420AD0B3F1804F68
:103EAC0007D0A2F59432934203D002F5806293427C
:103EBC0004D124F080044A6814439C60012380F8E8
:103ECC003D30002380F83C30184610BC704702206F
:103EDC00704700BF002C014070477047704798B185
:103EEC0008B50346D0F8B40210B10020C3F8B402F0
:103EFC0009B1C3F8B012012183F89C121A7018464C
:103F0C00FCF740FD002008BD0220704719B1C0F835
:103F1C00B412002070470220704708B5FCF774FDFE
:103F2C00002008BD08B5D0F8B4322BB11B689847F7
:103F3C0000B908BD0220FCE70220FAE708B5D0F86A
:103F4C00B4325B689847002008BD38B5044600F5CC
:103F5C002A75284600F035F90123C4F89432B4F8D8
:103F6C00AE32C4F8983294F8A81201F01F03012B5A
:103F7C000ED0022B11D02BB101F080012046FCF7A2
:103F8C005EFD03E02946204600F0CAFA002038BD49
:103F9C002946204600F0F8FAF8E72946204600F0BA
:103FAC0023FBF3E738B504460D4691BB1346D0F816
:103FBC009422032A03D0052A24D0084633E0D0F8F3
:103FCC006011D0F8642191420DD9891AC0F86011A2
:103FDC008A4206D98AB21946204600F037FC284698
:103FEC0021E092B2F7E7D0F8B4321B691BB190F81C
:103FFC009C22032A04D0204600F030FC284612E014
:10400C009847F8E70021C0F89412FCF718FD2846F1
:10401C0009E0D0F8B4329B6933B190F89C22032AA2
:10402C0004D19847002038BD0220FCE70220FAE7B3
:10403C0038B504460D46002953D11346D0F89422C6
:10404C00022A0CD0042A00D01AB980212046FCF791
:10405C00F6FC94F8A032012B3ED0284638BD016AFC
:10406C00426A91421BD8C169B1FBF2F302FB1313F4
:10407C002BB98A4203D8D0F8983299421CD3D4F881
:10408C00B432DB681BB194F89C22032A21D0802126
:10409C002046FCF7D4FC204600F0EBFBD9E78A1A4B
:1040AC00026292B2194600F0BAFB00231A46194676
:1040BC002046FCF7FBFCCCE70022114600F0AFFBDE
:1040CC000021C4F898120B460A462046FCF7EEFC79
:1040DC00BFE720469847DAE7002384F8A032284649
:1040EC00BCE7D0F8B4325B6933B190F89C22032A58
:1040FC0004D198470020B1E70220AFE70220ADE7DA
:10410C0070B50446402300221146FCF785FC0125BE
:10411C00C4F858514026C4F864613346002280210B
:10412C002046FCF779FCA561666284F89C5200235A
:10413C00C4F894326360C4F8A432D4F8B8322BB10A
:10414C00D4F8B4325B68002120469847002070BD3B
:10415C0001740020704790F89C3280F89D32042343
:10416C0080F89C320020704790F89C32042B01D0D0
:10417C000020704790F89D3280F89C32F8E708B523
:10418C0090F89C32032B01D0002008BDD0F8B4323B
:10419C00DB69002BF8D09847F6E70346002002E0D5
:1041AC000130C0B201331A78002AF9D1704708B532
:1041BC004B88012B00D008BDC0F8A43200F04EFB98
:1041CC00F9E70B7803704B7843708B78CA7803EB64
:1041DC00022343800B794A7903EB022383808B798A
:1041EC00CA7903EB0223C380704710B504468021C3
:1041FC00FCF725FC00212046FCF721FC10BD30B556
:10420C0083B005460C460023ADF806304A88130AE5
:10421C00013B062B00F2A480DFE803F004182CA26B
:10422C00A2869300D0F8B0321B680DF10601007C19
:10423C009847BDF806201AB1E388002B40F0948013
:10424C00E388002B00F09A8003B030BD037C43B9A7
:10425C00D0F8B4329B6A0DF10600984702234370E4
:10426C00E7E7D0F8B432DB6A0DF106009847022379
:10427C004370DEE7D2B2052A52D8DFE802F0031011
:10428C001D2A3744D0F8B0325B6823B10DF106011A
:10429C00007C9847CDE72146FFF7A7FFD4E7D0F87D
:1042AC00B0329B6823B10DF10601007C9847C0E742
:1042BC002146FFF79AFFC7E7D0F8B032DB6823B18D
:1042CC000DF10601007C9847B3E72146FFF78DFFFF
:1042DC00BAE7D0F8B0321B6923B10DF10601007CAE
:1042EC009847A6E72146FFF780FFADE7D0F8B0323C
:1042FC005B6923B10DF10601007C984799E72146D3
:10430C00FFF773FFA0E7D0F8B0329B6923B10DF132
:10431C000601007C98478CE72146FFF766FF93E780
:10432C002146FFF762FF8FE7037C33B9D0F8B43234
:10433C005B6B0DF1060098477BE72146FFF755FFB5
:10434C0082E7037C43B9D0F8B4321B6B0DF1060045
:10435C009847072343706CE72146FFF746FF73E746
:10436C002146FFF742FF6FE79A4228BF1A46ADF885
:10437C0006200146284600F045FA61E7284600F081
:10438C006DFA61E738B504468B88F3B9CB88E3B98D
:10439C004B887F2B19D803F07F0590F89C32032BA8
:1043AC000CD080F89E522946FCF770FB204600F09A
:1043BC0055FA35B1022384F89C3209E0FFF715FF5A
:1043CC0006E0012384F89C3202E02046FFF70DFF43
:1043DC0038BD000038B504460D468978284B197055
:1043EC0001290ED890F89C32022B0ED0032B21D031
:1043FC002946FFF7FAFE224B19782046FFF79EFD5F
:10440C0002E02946FFF7F1FE38BD81B1416003237C
:10441C0080F89C32FFF786FD022803D0204600F07E
:10442C001DFAF1E729462046FFF7DFFEECE700F026
:10443C0015FAE9E789B1436899421DD0D9B2FFF763
:10444C007DFD0F4B197861602046FFF76BFD02284C
:10445C000DD0204600F002FAD6E7022380F89C32F9
:10446C004160FFF76BFD204600F0F8F9CCE72946D8
:10447C002046FFF7BAFEC7E700F0F0F9C4E700BF2B
:10448C005014002008B5CB88012B0AD190F89C322F
:10449C00022B09D9032B09D10122011D00F0B2F91D
:1044AC0001E0FFF7A2FE08BD5BB213B9FFF79DFE5A
:1044BC00F9E70146002341F8083F012200F0A2F978
:1044CC00F1E708B590F89C32013B022B12D8CB884F
:1044DC00022B0CD10123C360D0F8A4320BB10323FF
:1044EC00C360022200F10C0100F08CF908BDFFF74B
:1044FC007CFEFBE7FFF779FEF8E708B590F89C32F5
:10450C00013B022B09D84B88012B00D008BD00239E
:10451C00C0F8A43200F0A2F9F8E7FFF766FEF5E761
:10452C0008B50B7803F06003202B05D0402B03D08B
:10453C0043B1FFF75AFE03E0D0F8B4329B689847BA
:10454C00002008BD4B78092B1BD8DFE803F01117AE
:10455C001A141A08051A0E0BFFF751FEF0E7FFF7B5
:10456C0011FFEDE7FFF736FFEAE7FFF78BFFE7E711
:10457C00FFF7A7FFE4E7FFF71AFEE1E7FFF7BDFF40
:10458C00DEE7FFF732FEDBE738B505460C460B7865
:10459C0003F06003202B06D0402B04D01BB1FFF797
:1045AC0024FE002038BD95F89C32013B022B16D816
:1045BC002379012B0ED8D5F8B4329B6821462846B6
:1045CC009847E388002BECD10028EAD1284600F06C
:1045DC0045F9E6E721462846FFF707FEE1E72146C5
:1045EC002846FFF702FEDCE770B505468B880C7891
:1045FC0004F06004202C07D0DAB2402C04D05CB15B
:10460C00FFF7F3FD002405E0D5F8B4329B6828468B
:10461C0098470024204670BD202C09D04E78012EDE
:10462C0033D0032E0AD0002E55D0FFF7DEFDF1E774
:10463C00D0F8B4329B6898470446EBE790F89C326C
:10464C00022B04D0032B11D0FFF7CFFDE2E70AB108
:10465C00802A03D12846FFF7C8FDDBE71146FCF79B
:10466C00EEF980212846FCF7EAF9D3E74B8823B909
:10467C001AB1802A01D0CB881BB1284600F0EEF885
:10468C00C8E71146FCF7DBF9F7E790F89C32022BF0
:10469C0004D0032B11D0FFF7A8FDBBE70AB1802A89
:1046AC0003D12846FFF7A1FDB4E71146FCF7C7F983
:1046BC0080212846FCF7C3F9ACE74B88002BA9D125
:1046CC0012F07F0F03D1284600F0C8F8A2E711467C
:1046DC00FCF7BDF9F7E790F89C02022806D00328F6
:1046EC0029D02846FFF781FD344693E70AB1802A8A
:1046FC0013D113F0800F15D102F07F0202EB82026E
:10470C00910001F5A8712944043100230B600222A9
:10471C00284600F077F834467CE72846FFF765FD1D
:10472C00344677E702F07F0202EB820291001031EF
:10473C0029440431E9E75BB2002B1FDB02F00F00C8
:10474C0000EB800005EB8000D0F8580120B3002B63
:10475C0027DB02F07F0303EB83039C0004F5A874B2
:10476C002C4404340AB1802A24D100232360022271
:10477C002146284600F046F834464BE702F00F007D
:10478C0000EB800005EB800080690028DFD1284613
:10479C00FFF72BFD34463DE72846FFF726FD344650
:1047AC0038E702F07F0303EB83039C0010342C44A6
:1047BC000434D7E711462846FCF751F910B1012310
:1047CC002360D4E700232360D1E7D0B170B50D4648
:1047DC0016460446FFF7E1FC431C5B009BB233809A
:1047EC002B7003236B70022307E001345A1CD2B2E6
:1047FC00E8540233DBB20021A95420780028F4D10C
:10480C0070BD704708B513460222C0F89422C361EC
:10481C0003620A460021FCF741F9002008BD08B5E7
:10482C0013460A460021FCF739F9002008BD08B5EB
:10483C0013460322C0F89422C0F85C31C0F86031F2
:10484C000A460021FCF732F9002008BD08B51346D2
:10485C000A460021FCF72AF9002008BD08B50423FC
:10486C00C0F8943200231A461946FCF717F90020B9
:10487C0008BD08B50523C0F8943200231A46194622
:10488C00FCF714F9002008BD10B5D0F8B842D0F8E8
:10489C00BC325BB194F80002FF2807D09B6894F8F7
:1048AC00012221469847FF2384F80032002010BDD6
:1048BC004323038000487047A40000204323038057
:1048CC0000487047E80000204323038000487047ED
:1048DC00380100200A230380004870472C01002077
:1048EC0038B50446D0F8B852FCF7E8F8C5F80C0215
:1048FC00D4F8B8324BB1D4F8BC32DB6805F503718F
:10490C00D5F804029847002038BD0220FCE710B50A
:10491C00D0F8B822D0F8C042F2B101EB810300EB21
:10492C008303DB694BB101EB810C04EBCC04A46B6E
:10493C00B3FBF4FC04FB1C3323B10023C2F8143288
:10494C00002010BD01EB810300EB83030022DA6130
:10495C001346FCF7A3F8F3E70220F2E7F0B583B0B7
:10496C0006460C46D0F8B87200238DF80730ADF827
:10497C0004300B7813F0600527D0202D53D1CA8852
:10498C00DAB113F0800F0CD0D0F8BC329B683946EA
:10499C0060789847E28839463046FFF733FF0025A8
:1049AC0044E04B7887F800328B7987F80132CA885B
:1049BC003946FFF73CFF002538E0D0F8BC329B6845
:1049CC00002248789847002530E04F780A2F14D001
:1049DC000B2F20D01FB1FFF708FC022526E090F822
:1049EC009C32032B03D0FFF700FC02251EE00222B1
:1049FC0001A9FFF707FF3D4618E090F89C32032B06
:104A0C0003D0FFF7F2FB022510E001220DF10701A4
:104A1C00FFF7F8FE0AE090F89C32032B06D0FFF764
:104A2C00E4FB022502E0FFF7E0FB0225284603B079
:104A3C00F0BD38B504468121FBF7F9FF0025E5628E
:104A4C0001212046FBF7F3FFC4F86C51822120466C
:104A5C00FBF7EDFF2564D4F8B8324BB1D4F8BC3277
:104A6C005B689847D4F8B802FCF732F8C4F8B8522F
:104A7C00002038BD70B50446037CABBB4FF400730B
:104A8C0002228121FBF7C8FF0125E5624FF4007378
:104A9C00022229462046FBF7BFFFC4F86C510823BD
:104AAC00032282212046FBF7B7FF012323644FF436
:104ABC000770FCF709F80546C4F8B80268B3D4F8D7
:104ACC00BC321B6898470023C5F81432C5F818325D
:104ADC00267CCEB94FF40073D5F804220121204670
:104AEC00FBF7E4FF304670BD402302228121FBF727
:104AFC0093FF0125E5624023022229462046FBF75D
:104B0C008BFFC4F86C51CAE74023D5F8042201216D
:104B1C002046FBF7CBFF0026E4E70126E2E719B1BC
:104B2C00C0F8BC120020704702207047D0F8B83291
:104B3C00C3F80812C3F8102200207047D0F8B8321E
:104B4C00C3F8041200207047D0F8B82292B108B50F
:104B5C00037C43B94FF40073D2F804220121FBF714
:104B6C00A5FF002008BD4023D2F804220121FBF749
:104B7C009DFFF6E7022070470268D36823F4907318
:104B8C00D3600268536923F001035361036B012B5B
:104B9C0005D0202380F83E30002303637047026861
:104BAC00D36823F01003D360F3E790F83D30DBB209
:104BBC00212B01D0022070478368B3F5805F17D09A
:104BCC00036A5A1C02621A7803685A60C38C9BB23F
:104BDC00013B9BB2C3844BB90268D36823F08003BA
:104BEC00D3600268D36843F04003D3600020704761
:104BFC000369002BE4D1036A1B880268C3F3080322
:104C0C005360036A02330362E0E7000010B5044608
:104C1C000268136923F44053C1680B431361836822
:104C2C000269134342691A430168CB6823F4B053F9
:104C3C0023F00C031343CB600268536923F44073D5
:104C4C0081690B4353610268134B9A4220D0FEF7E3
:104C5C0033FA024602EB820202EB820263689B008B
:104C6C00B2FBF3F20D48A0FB02314909642303FBAC
:104C7C0011231B013233A0FB03235B0903F0F00269
:104C8C0002EB011203F00F03216813448B6010BD7B
:104C9C00FEF722FA0246DDE7003801401F85EB5192
:104CAC002DE9F84305460F4616469946DDF8208057
:104CBC002C68246837EA04030CBF4FF0010C4FF04A
:104CCC00000CB4451FD1B8F1FF3FF1D0B8F1000F83
:104CDC0005D0FDF7D9FEA0EB09004045E8D92A68BC
:104CEC00D36823F4D073D3602A68536923F001038B
:104CFC005361202385F83D3085F83E30002385F83C
:104D0C003C30032000E00020BDE8F88358B310B518
:104D1C00044690F83D300BB3242384F83D302268D0
:104D2C00D36823F40053D3602046FFF76FFF22684B
:104D3C00136923F4904313612268536923F02A0307
:104D4C0053612268D36843F40053D360002020647D
:104D5C00202384F83D3084F83E3010BD80F83C3080
:104D6C0000F0F8FBD8E7012070472DE9F04182B044
:104D7C001E4690F83D30DBB2202B54D104460D4634
:104D8C009046002953D0002A53D090F83C30012B88
:104D9C0051D0012380F83C3000230364212380F898
:104DAC003D30FDF771FE0746A4F82480A4F8268058
:104DBC00A368B3F5805F05D04FF00008002384F89A
:104DCC003C3012E0236913B14FF00008F6E7A84617
:104DDC000025F3E738F8023B2268C3F3080353605D
:104DEC00E28C92B2013A92B2E284E38C9BB273B140
:104DFC0000963B46002280212046FFF751FFE0B988
:104E0C00002DE7D015F8012B23685A60E8E70096CF
:104E1C003B46002240212046FFF742FF78B9202371
:104E2C0084F83D3000E0022002B0BDE8F0810120A2
:104E3C00FAE70120F8E70220F6E70320F4E7032065
:104E4C00F2E708B50168CA6822F04002CA60202265
:104E5C0080F83D20FBF7BCFA002008BD704708B570
:104E6C00406A0023C385C384FFF7F8FF08BD704771
:104E7C0090F83E30DBB2222B60D18368B3F5805FB3
:104E8C0046D0826AB3F5805F04D0002B4DD1036904
:104E9C00002B4AD103685B681370836A0133836209
:104EAC00C38D9BB2013B9BB2C385002B48D100B58F
:104EBC0083B00268D36823F02003D3600268D36800
:104ECC0023F48073D3600268536923F001035361A8
:104EDC00202380F83E30036B012B2CD1002303637D
:104EEC000268D36823F01003D36003681A6812F0C9
:104EFC00100F06D0002201921A6801925B68019390
:104F0C00019B818DFFF7B3FF002003B05DF804FB1C
:104F1C000269002AB5D1826A03685B68C3F308038F
:104F2C001380836A02338362BAE703685B6803F019
:104F3C007F031370B1E7FBF711FAE5E70220704726
:104F4C000020704730B583B0044602681368D068FF
:104F5C00516913F00F0505D113F0200F02D010F09A
:104F6C00200F19D12DB111F0010119D110F4907F3E
:104F7C0016D1216B012975D013F0800F03D010F0DE
:104F8C00800F40F0D78013F0400F03D010F0400F8B
:104F9C0040F0D48003B030BD2046FFF769FFF9E73D
:104FAC0013F0010F06D010F4807F03D0226C42F076
:104FBC000102226413F0040F04D019B1226C42F0E8
:104FCC000202226413F0020F04D019B1226C42F0D9
:104FDC000402226413F0080F07D010F0200F00D148
:104FEC0019B1226C42F008022264226C002AD1D042
:104FFC0013F0200F02D010F0200F21D123685B6931
:10500C0003F04003226C12F0080F00D123B32046AA
:10501C00FFF7B2FD23685A6912F0400F18D05A6995
:10502C0022F040025A61A36B73B1464A5A63A06BDB
:10503C00FEF728FA0028ADD0A06B436B9847A9E780
:10504C002046FFF715FFD9E72046FFF707FFA1E73A
:10505C002046FFF703FF9DE72046FFF7FFFE0023E6
:10506C00236497E713F0100F86D010F0100F83D045
:10507C00002301931368019353680193019B5369B7
:10508C0013F0400F32D0A16B0B685B689BB2002B06
:10509C0080D0A08D98427FF67DAFE3858B69202B65
:1050AC0008D1A18DE38D9BB2C91A89B22046FFF7B6
:1050BC00DEFE6FE7D36823F48073D36022685369F4
:1050CC0023F0010353612268536923F040035361B9
:1050DC00202384F83E30002323632268D36823F016
:1050EC001003D360A06BFEF7ABF9DAE7A18DE38D6B
:1050FC009BB2C91A89B2E38D9BB2002B3FF44AAF25
:10510C0000293FF447AFD36823F49073D36022682F
:10511C00536923F001035361202384F83E300023AC
:10512C0023632268D36823F01003D3602046FFF773
:10513C009EFE2FE72046FFF738FD2BE72046FFF7B2
:10514C0080FE27E76B4E0008034681628285C2858C
:10515C0000201864222283F83E2083F83C00196852
:10516C00CA6842F48072CA6019684A6942F0010246
:10517C004A611A68D36843F02003D360704708B5BE
:10518C0090F83E30DBB2202B0DD171B17AB190F892
:10519C003C30012B0DD0012380F83C3000230363FD
:1051AC00FFF7D2FF00E0022008BD0120FCE7012040
:1051BC00FAE70220F8E700002DE9F04188B000245E
:1051CC000494059406940794354B9A6942F01002A6
:1051DC009A619A6902F010020092009A9A6942F060
:1051EC0020029A619A6902F020020192019A9A694E
:1051FC0042F004029A619A6902F004020292029A45
:10520C009A6942F008029A619B6903F008030393C0
:10521C00039BDFF8908022464FF400514046FEF786
:10522C0009F9214E224640F202613046FEF702F99E
:10523C001E4F22464FF400613846FEF7FBF84FF440
:10524C00005304930123059306940225079504A9A2
:10525C004046FDF7DDFF40F20113049305950795D9
:10526C0004A93046FDF7D4FF40F2026304934FF0DB
:10527C001108CDF814800694079504A93046FDF763
:10528C00C7FF4FF400630493CDF814800694079580
:10529C0004A93846FDF7BCFF08B0BDE8F08100BF9B
:1052AC00001002400010014000080140000C0140B9
:1052BC0000B583B00368174A934205D0164A93424F
:1052CC0015D003B05DF804FB144BDA6942F002020E
:1052DC00DA61DB6903F002030093009B00221146A4
:1052EC001D20FEF72DF91D20FEF762F9E9E70B4BA7
:1052FC00DA6942F00402DA61DB6903F0040301931A
:10530C00019B002211461E20FEF71AF91E20FEF703
:10531C004FF9D6E70004004000080040001002409E
:10532C0000B587B00023029303930493059303689D
:10533C00194A934205D0194A934217D007B05DF829
:10534C0004FB174B9A6942F004029A619B6903F0C3
:10535C0004030093009B80230293122303930223E4
:10536C00059302A90F48FDF753FFE7E70C4B9A6929
:10537C0042F008029A619B6903F008030193019BB8
:10538C004FF480730293122303930223059302A913
:10539C000548FDF73DFFD1E7000400400008004040
:1053AC000010024000080140000C014000B58FB015
:1053BC0000230A930B930C930D9308930993019379
:1053CC000293039304930593069307932448254A69
:1053DC000260436083600222C260036180238361A8
:1053EC00FEF7B6FA60BB4FF480530A930AA91C4827
:1053FC00FEF7ACFB38BB1A48FEF7D6FA30BB0023DD
:10540C000893099308A91648FEF730FD08BB6023E2
:10541C0001930123029300230393059304220DEBC4
:10542C0002010F48FEF71EFBB0B90D4802689369E4
:10543C0023F400639361FFF773FF0FB05DF804FB77
:10544C00FBF79AF8CFE7FBF797F8D4E7FBF794F85C
:10545C00D5E7FBF791F8DAE7FBF78EF8E5E700BF45
:10546C00541400200004004000B58FB000230A93B0
:10547C000B930C930D93089309930193029303934D
:10548C0004930593069307932348244A02604360D0
:10549C0083600222C260036180238361FEF758FAA5
:1054AC0058BB4FF480530A930AA91B48FEF74EFBD6
:1054BC0030BB1948FEF778FA28BB002308930993F0
:1054CC0008A91548FEF7D2FC00BB60230193012309
:1054DC000293002303930593082201A90E48FEF7BB
:1054EC00C1FAB0B90C480268D36923F00803D36140
:1054FC00FFF716FF0FB05DF804FBFBF73DF8D0E7A4
:10550C00FBF73AF8D5E7FBF737F8D6E7FBF734F8B3
:10551C00DBE7FBF731F8E5E79C14002000080040BE
:10552C0008B50A480A4B03604FF4E133436000238B
:10553C008360C36003610C2242618361C361FFF726
:10554C00E5FB00B908BDFBF717F8FBE7E4140020F6
:10555C000038014030B587B00023029303930493C5
:10556C00059302681E4B9A4201D007B030BD03F57B
:10557C0058439A6942F480429A619A6902F48042D3
:10558C000092009A9A6942F008029A619B6903F0B2
:10559C0008030193019B40230293022303930323EB
:1055AC000593104D02A92846FDF732FE8023029385
:1055BC0000240394049402A92846FDF729FE0A4A04
:1055CC00536843F0E06343F00403536022462146E2
:1055DC002520FDF7B5FF2520FDF7EAFFC5E700BF45
:1055EC0000380140000C0140000001400C480D49FE
:1055FC000D4A002302E0D458C4500433C4188C4222
:10560C00F9D30A4A0A4C002301E013600432A24287
:10561C00FBD3FEF763FC00F013F8FAF7F2FF7047C8
:10562C0000000020E00100208C6C0008E00100204C
:10563C003C150020FEE70A22002100F01BB90000F7
:10564C0070B500260C4D0D4C641BA410A64209D15C
:10565C0001F070F900260A4D0A4C641BA410A642F6
:10566C0005D170BD55F8043B98470136EEE755F867
:10567C00043B98470136F2E7846C0008846C000800
:10568C00846C0008886C00080A44914200F1FF33D6
:10569C0000D1704710B511F8014B914203F8014F3E
:1056AC00F9D110BD03460244934200D1704703F870
:1056BC00011BF9E7034611F8012B03F8012B002A13
:1056CC00F9D17047164B2DE9F0411F680546BC6DAA
:1056DC000E46ECB9502000F00DF90246B86520B921
:1056EC005721104B104800F0CFF8C0E90044C0E936
:1056FC000244C0E90444C0E90A44C0E90C44C0E9CE
:10570C000E44C0E91044C0E9124484610477446239
:10571C0031462846BA6D0123BDE8F04100F006B8C9
:10572C007C0100201C6A0008336A0008F0B508B937
:10573C00106888B104460F46204614F8015B17F830
:10574C00016B1EB965B92846156005E0B542F6D166
:10575C00002BF0D114600370F0BD1C460CE015B9A1
:10576C000E4614F8013B16F8015BAB42F7D1002B47
:10577C00F3D0002304F8013C1460EDE7012B2DE974
:10578C00F047804601D0242B06D900F09BF8162355
:10579C0003600020BDE8F0870D46354F284615F80C
:1057AC00014BE65D16F00806F8D12D2C2FD1012601
:1057BC002C78851C002B57D0102B09D1302C07D1FD
:1057CC00287800F0DF00582849D110236C78023576
:1057DC00002706F1004E0EF1FF3EBEFBF3F93846F2
:1057EC0003FB19EAA4F1300CBCF1090F14D8644680
:1057FC00A34222DD002F1DDB81451BD301D1A24525
:10580C0018DB012700FB034015F8014BEAE72B2CB2
:10581C0004BF2C78851CCDE7A4F1410CBCF1190F09
:10582C0001D8373CE4E7A4F1610CBCF1190F04D8A2
:10583C00573CDDE74FF0FF37E6E7002F07DA22236E
:10584C007046C8F80030002AA4D0691E05E006B1E5
:10585C004042002A9ED0002FF7D111609AE73024E5
:10586C00002BB5D10823B3E7302CA9D00A23AFE71E
:10587C00F06A000813460A46014602480068FFF722
:10588C007DBF00BF7C0100201FB514461A46094B92
:10589C0005461B68D8684CB1074BCDE90134009123
:1058AC002B46064900F014F800F0C6FC044B1C46CD
:1058BC00F3E700BF7C010020B36A0008C06A00084F
:1058CC00EE6A0008014B1868704700BF7C0100208D
:1058DC000EB403B5014603AB054853F8042B00681E
:1058EC00019300F013F902B05DF804EB03B07047BC
:1058FC007C010020024B0146186800F06BB800BF19
:10590C007C01002038B50546002940D051F8043CF4
:10591C000C1F002BB8BFE41800F0C0FE1C4A136823
:10592C0033B9636014602846BDE8384000F0BCBE53
:10593C00A34208D9206821188B4201BF19685B6803
:10594C0009182160EDE71A465B680BB1A342FAD93E
:10595C0011685018A0420BD12068014450188342A2
:10596C001160E0D118685B68014411605360DAE79C
:10597C0002D90C232B60D6E7206821188B4201BF7B
:10598C0019685B680918216063605460CBE738BD07
:10599C002815002070B50E4E0C463168054611B91D
:1059AC0000F07AFB30602146284600F075FB431C62
:1059BC000AD0C41C24F00304A04207D0211A2846A4
:1059CC0000F06AFB013001D14FF0FF34204670BD6E
:1059DC002C1500202DE9F041CD1C25F003050835D0
:1059EC000C2D38BF0C25002D074601DBA94205D92B
:1059FC000C2300263B603046BDE8F0812E4E00F0B3
:105A0C004DFE33681C4634BB29463846FFF7C2FFAF
:105A1C00431C04464DD134682646002E40D12368E1
:105A2C003146384604EB030800F036FB80453AD18A
:105A3C00216803356D1A25F0030508350C2D38BF88
:105A4C000C2538462946FFF7A5FF01302BD02368DB
:105A5C002B4423600EE02268521B1ED40B2A16D94D
:105A6C006119A342256018BF5960636808BF316093
:105A7C0062514B60384604F10B0600F015FE26F01F
:105A8C000706231DF21AB6D09B1BA350B3E762681E
:105A9C00A3420CBF32605A60ECE723466468B2E75D
:105AAC0034467668B9E70C2338463B6000F0FCFDC1
:105ABC00A1E72560DEE700BF28150020936810B42D
:105ACC00013B002B936007DA9469A34201DB0A299E
