:020000040800F2
:100000000050002061260008090600080B060008C1
:100010000D0600080F060008110600080000000089
:1000200000000000000000000000000013060008AF
:100030001506000800000000170600081906000851
:10004000A9260008A9260008A9260008A926000854
:10005000A9260008A9260008A9260008A926000844
:10006000A9260008A9260008A9260008A926000834
:1000700021060008A9260008A9260008A9260008CC
:10008000A9260008A9260008A9260008A926000814
:10009000A9260008A9260008A9260008A926000804
:1000A000A9260008A9260008A9260008A9260008F4
:1000B000A9260008A926000831060008A92600087C
:1000C000A9260008A9260008A9260008A9260008D4
:1000D000A926000841060008A9260008A92600084C
:1000E000A9260008A9260008A9260008000000008B
:1000F0000000000000000000000000000000000000
:0C01000000000000000000005FF808F1A3
:10010C0010B5054C237833B9044B13B10448AFF345
:10011C0000800123237010BD440400200000000067
:10012C00342A000808B5034B1BB103490348AFF34D
:10013C00008008BD0000000048040020342A00089C
:10014C0000B583B00A4B5A6942F001025A615B69EF
:10015C0003F001030193019B002211460C2000F0D7
:10016C004FFC0C2000F084FC03B05DF804FB00BFD6
:10017C00001002402DE9F04188B00024049405944D
:10018C0006940794234B9A6942F010029A619A697B
:10019C0002F010020192019A9A6942F020029A61CF
:1001AC009A6902F020020292029A9A6942F00402C1
:1001BC009A619B6903F004030393039BDFF8588057
:1001CC0022464FF40051404600F023FF134D2246C7
:1001DC000121284600F01DFF4FF400530493012722
:1001EC00059706940226079604A9404600F0F8FDF0
:1001FC00049705970694079604A9284600F0F0FD8D
:10020C0004960594069404A9284600F0E9FD08B06C
:10021C00BDE8F081001002400010014000080140D0
:10022C0008B502680E4B9A4200D008BD0D4B1B78E6
:10023C000D2B0BD00C490A78501C08700B498B54B1
:10024C00012208490A4802F0E8F9EEE7064B197852
:10025C000022064842540749012008701A70EFE743
:10026C0000380140D2040020D00400206404002097
:10027C00C40A0020C80400200268294B9A4200D00E
:10028C00704710B5274B1B78032B2DD8DFE803F0F4
:10029C00020E2031244A1368591E116023BB1346E9
:1002AC000A221A601F4B01221A701DE0012211460E
:1002BC001E4800F0AEFE1C4A1368591E11609BB913
:1002CC00134642F210721A60164B02221A700BE09F
:1002DC00164C00220121204600F09BFE02212046F4
:1002EC0000F090FE012800D010BD0E4B03221A70B6
:1002FC00FAE70F4A13680133136002210B4800F030
:10030C0081FE0028F0D10021064B1970084A1368B1
:10031C000848A0FB03035B09074803601160E3E78F
:10032C0000080040D104002000000020000801401B
:10033C00CC04002009CB3D8D6004002072B6FEE792
:10034C0000B591B02822002106A802F0D1F90023B3
:10035C0001930293039304930593012206924FF4A5
:10036C00803307930A9202220D920E934FF4E013FE
:10037C000F9306A800F072FE80B90F23019302219F
:10038C000291002303934FF480620492059301A819
:10039C0001F0A4F820B911B05DF804FBFFF7CEFF13
:1003AC00FFF7CCFF70B584B000F0E0FAFFF7C8FFA0
:1003BC00FFF7E0FEFFF7C4FE00F0FAF900F044F995
:1003CC0000F050FA334801F017FA01223249334851
:1003DC0002F023F9642000F0EDFA00F0DDF8304B68
:1003EC001B788DF80C300023ADF80D300093019381
:1003FC00029342E0002601342A4802F0CBF9A042D5
:10040C0014D9284B1B5D202BF4D0002EF3D16A1C81
:10041C00244B234404A901EB850545F8103CD5B2C7
:10042C000126E8E7012400263546E5E7009802F0AE
:10043C0037F98DF80C00019802F032F98DF80D00A7
:10044C00029802F02DF98DF80E0020E023469DF85D
:10045C000E209DF80D109DF80C0000F029F80134C9
:10046C00A4B2152CF2D900F089F84FF400510E48C3
:10047C0000F0D5FD642000F09DFA0C4B1B7833B1D5
:10048C000A4B00221A70074B1B78772BCAD000241A
:10049C00E7E700BF7C0A0020D2040020C40A002039
:1004AC004C2A00086404002000100140C8040020FD
:1004BC004FF0000CBCF1070F5CD8F0B526E003EB55
:1004CC004305ED007D35654408352B4E012726F894
:1004DC0015702DE003EB4305ED007D352544264ECC
:1004EC00012726F8157031E003EB4305ED007D354F
:1004FC002C441034204D4FF0010E25F814E00CF173
:10050C00010C1FFA8CFCBCF1070F32D86446CCF1FD
:10051C00070E40FA0EF515F0010FD0D003EB430592
:10052C00ED007D3565440835134E022726F815700D
:10053C0041FA0EF515F0010FCCD003EB4305ED009D
:10054C007D3525440C4E022726F8157042FA0EFE16
:10055C001EF0010FC8D003EB430E4FEACE0E0EF186
:10056C007D0E74441034044D4FF0020E25F814E047
:10057C00C5E7F0BD704700BFD404002008B540F2B9
:10058C008D23034A0021034801F066FC08BD00BF1F
:10059C00D4040020340A002010B5002406E0A3B2D5
:1005AC00002211461046FFF783FF0134152CF6DDAF
:1005BC00FFF7E4FF10BD000082B00E4B9A6942F0C9
:1005CC0001029A619A6902F001020092009ADA69BA
:1005DC0042F08052DA61DB6903F080530193019B96
:1005EC00054A536823F0E06343F00073536002B094
:1005FC00704700BF0010024000000140FEE7FEE71C
:10060C00FEE7FEE7FEE770477047704708B500F05D
:10061C00BFF908BD08B5024800F040FB08BD00BF9B
:10062C00F009002008B5024801F076F908BD00BFBA
:10063C007C0A002008B5024801F0D2FE08BD00BFBC
:10064C00C40A00207047000000B587B00023029355
:10065C00039304930593009301931448144A026086
:10066C004722426083600122C2600361836101F012
:10067C0079FA90B94FF48053029302A90B4801F018
:10068C006FFB68B90023009301936946074801F09A
:10069C0001FD40B907B05DF804FBFFF74FFEE9E739
:1006AC00FFF74CFEEEE7FFF749FEF3E77C0A00206C
:1006BC00000800400268174B9A4200D0704710B5F2
:1006CC0082B0044603F564439A6942F400629A616D
:1006DC009B6903F400630193019B0F480F4B03606C
:1006EC0010234360002383608022C2604FF4807229
:1006FC0002614FF4806242618361C36100F0F0F9E2
:10070C0020B9054B63625C6202B010BDFFF716FEA8
:10071C00F7E700BF002C0140F00900201C0002404C
:10072C0002680E4B9A4200D0704700B583B003F5B7
:10073C000233DA6942F00402DA61DB6903F0040384
:10074C000193019B002211461E2000F059F91E2036
:10075C0000F08EF903B05DF804FB00BF0008004008
:10076C0000B587B0002302930393049305930268AA
:10077C000D4B9A4202D007B05DF804FB03F56443BD
:10078C009A6942F004029A619B6903F00403019395
:10079C00019B4FF48073029302230393059302A9E8
:1007AC00024800F01DFBE6E7002C01400008014068
:1007BC0010B592B000241094119409940A940B94DF
:1007CC000C940D940E940F942022214601A801F054
:1007DC008FFF2248224B03601C2343608460032359
:1007EC00C36004614461846101F0E8F9002829D1F7
:1007FC0000231093119310A9184801F04BFC20BB57
:10080C006023099300220A920B920C920D920E9285
:10081C000F9209A9114801F02FFAC8B900230193CE
:10082C0002930393049305934FF40052069208939A
:10083C0001A90A4801F064FC68B90848FFF790FF69
:10084C0012B010BDFFF77AFDD2E7FFF777FDD7E7BF
:10085C00FFF774FDE2E7FFF771FDEEE7340A0020C5
:10086C00002C014008B50A480A4B03604FF4E133F1
:10087C00436000238360C36003610C224261836187
:10088C00C36101F0FBFC00B908BDFFF757FDFBE7A6
:10089C00C40A00200038014030B587B00023029311
:1008AC0003930493059302681B4B9A4201D007B043
:1008BC0030BD03F558439A6942F480429A619A69B3
:1008CC0002F480420092009A9A6942F004029A6102
:1008DC009B6903F004030193019B4FF40073029393
:1008EC0002230393032305930C4D02A9284600F021
:1008FC0077FA4FF48063029300240394049402A9C2
:10090C00284600F06DFA22462146252000F078F8A2
:10091C00252000F0ADF8CAE700380140000801407E
:10092C0010B504460E4B18784FF47A73B3FBF0F302
:10093C000C4A1068B0FBF3F000F0A8F868B90F2C63
:10094C0001D901200AE0002221464FF0FF3000F0CF
:10095C0057F8054B1C60002000E0012010BD00BFC3
:10096C0008000020040000200C00002008B5074AF5
:10097C00136843F010031360032000F02FF80F20CE
:10098C00FFF7CEFFFFF718FE002008BD0020024045
:10099C00034A1168034B1B780B441360704700BF6C
:1009AC00080B002008000020014B1868704700BF9E
:1009BC00080B002038B50446FFF7F6FF0546B4F1E6
:1009CC00FF3F02D0044B1B781C44FFF7EDFF401B8C
:1009DC00A042FAD338BD00BF08000020074AD368F4
:1009EC0023F4E0631B041B0C000200F4E0600343DF
:1009FC0043F0BF6343F40033D360704700ED00E075
:100A0C0000B5194BDB68C3F30223C3F1070CBCF12F
:100A1C00040F28BF4FF0040C03F1040EBEF1060FB7
:100A2C0018D9033B4FF0FF3E0EFA0CFC21EA0C01E7
:100A3C0099400EFA03F322EA0303194300280BDB57
:100A4C000901C9B200F1604000F5614080F8001363
:100A5C005DF804FB0023E5E700F00F000901C9B2C3
:100A6C00024B1954F4E700BF00ED00E014ED00E078
:100A7C00002807DB00F01F02400901239340024AC3
:100A8C0042F82030704700BF00E100E00138B0F1BF
:100A9C00807F0BD24FF0E0235861054AF02182F899
:100AAC0023100020986107221A61704701207047BB
:100ABC0000ED00E030B40124056CAC40C56B6C60FB
:100ACC00046863604368102B05D003689960036861
:100ADC00DA6030BC704703689A600368D960F8E745
:100AEC0060B310B402460168154B0B441548A0FBCB
:100AFC0003031B099B001364134BD363022382F87B
:100B0C002130086820F47F5020F03000536894683E
:100B1C002343D468234314692343546923439469BE
:100B2C002343D469234303430B60002090630123C8
:100B3C0082F8213082F8200010BC704701207047E9
:100B4C00F8FFFDBFCDCCCCCC0000024038B504463C
:100B5C0090F82000012831D0012084F8200094F86E
:100B6C002100012804D0002384F82030022038BD55
:100B7C00022084F821000020A0632568286820F05A
:100B8C00010028602046FFF795FFE36A5BB12268FD
:100B9C00136843F00E0313602268136843F00103DB
:100BAC0013600020E3E72268136823F0040313604A
:100BBC002268136843F00A031360EDE70220D6E7BE
:100BCC0090F82130022B06D004238363002380F895
:100BDC002030012070470268136823F00E03136065
:100BEC000268136823F001031360036CC16B0122CC
:100BFC0002FA03F34B6080F82120002380F82030A8
:100C0C001846704708B590F82130022B03D0042306
:100C1C008363012008BD0268136823F00E03136080
:100C2C000268136823F0010313600368194A9342A6
:100C3C0014D0143293421FD0143293421ED014326B
:100C4C0093421ED0143293421ED01432934202D0DF
:100C5C004FF0807203E04FF4801200E001220E4B43
:100C6C005A60012380F82130002380F82030436B38
:100C7C006BB198470020CDE71022F0E74FF480725B
:100C8C00EDE74FF48052EAE74FF48032E7E70020BB
:100C9C00C0E700BF080002400000024038B5C36B3B
:100CAC001A6804682568016C04238B40134235D004
:100CBC0015F0040F32D0236813F0200F03D12368F2
:100CCC0023F0040323600368434A934214D0143284
:100CDC00934218D01432934217D01432934217D047
:100CEC001432934217D01432934202D04FF08062E8
:100CFC0003E04FF4800200E00422384B5A60C36AD0
:100D0C0003B1984738BD4022F7E74FF48062F4E70F
:100D1C004FF48042F1E74FF48022EEE702238B4040
:100D2C0013423CD015F0020F39D0236813F0200F7A
:100D3C0006D1236823F00A032360012380F82130B5
:100D4C000368254A934214D0143293421CD01432B7
:100D5C0093421BD0143293421BD0143293421BD0BB
:100D6C001432934202D04FF0007203E04FF40012A1
:100D7C0000E00222194B5A60002380F82030836A6D
:100D8C00002BBFD09847BDE72022F3E74FF4007249
:100D9C00F0E74FF40052EDE74FF40032EAE7082396
:100DAC0003FA01F11142ADD015F0080FAAD0236857
:100DBC0023F00E032360026CC16B012303FA02F2D1
:100DCC004A60836380F82130002380F82030036B65
:100DDC00002B97D0984795E708000240000002408E
:100DEC0070B582B00024A446A6E0804DAA4210D073
:100DFC0007D97F4DAA420CD005F58035AA4208D000
:100E0C0013E0A5F58015AA4203D005F57025AA427A
:100E1C0007D18A68002A58D0012A51D0436108248E
:100E2C0003E0A5F58015AA42F3D0BEF1FF0F4ED812
:100E3C000646BEF1FF0F4CD84FEA8C0233680F25E3
:100E4C00954023EA050304FA02F2134333604B681E
:100E5C0013F0805F6ED0674B9A6942F001029A6181
:100E6C009B6903F001030193019B4FEA9C02951CC3
:100E7C00614B53F825600CF003039D000F23AB402E
:100E8C0026EA03065D4B984229D003F5806398420D
:100E9C0000F08E8003F58063984200F08B8003F5A0
:100EAC008063984219D004231AE0CC68BDE7CC6863
:100EBC000434BAE7CC680834B7E7CC680C34B4E730
:100ECC0003610824B1E70024AFE70424ADE7061D55
:100EDC00AFE7ACF108029200B0E7032300E0002377
:100EEC00AB4033430232444D45F822304B6813F487
:100EFC00803F61D0424A136843EA0E0313604B688B
:100F0C0013F4003F5ED03E4A536843EA0E0353602D
:100F1C004B6813F4801F5BD0394A936843EA0E0385
:100F2C0093604B6813F4001F58D0354AD36843EADA
:100F3C000E03D3600CF1010C0A6832FA0CF353D097
:100F4C00012303FA0CF302EA030E33EA0202F1D195
:100F5C004A68122A3FF649AF122A3FF666AF01A53E
:100F6C0055F822F01F0E0008B70E0008C10E00083D
:100F7C00D30E0008370E0008370E0008370E000895
:100F8C00370E0008370E0008370E0008370E000821
:100F9C00370E0008370E0008370E0008370E000811
:100FAC00370E0008370E0008BB0E0008C70E0008ED
:100FBC00012395E7022393E7114A136823EA0E03F2
:100FCC0013609CE70E4A536823EA0E0353609FE7B5
:100FDC000B4A936823EA0E039360A2E7084AD3688E
:100FEC0023EA0E03D360A5E702B070BD0000221007
:100FFC0000003110001002400000014000080140C8
:10100C00000401408368194201D001207047002080
:10101C0070470AB101617047090401617047C368E8
:10102C0001EA030221EA030141EA0241016170472E
:10103C0082B0084B1B68084AA2FB03235B0A00FB27
:10104C0003F3019300BF019B5A1E0192002BF9D1AF
:10105C0002B0704704000020D34D6210002800F04D
:10106C00F18170B582B00446036813F0010F2CD0E7
:10107C00994B5B6803F00C03042B1DD0964B5B68FB
:10108C0003F00C03082B12D06368B3F5803F41D0FA
:10109C00002B55D103F1804303F504331A6822F475
:1010AC0080321A601A6822F480221A6037E08A4B68
:1010BC005B6813F4803FE7D0874B1B6813F4003F49
:1010CC0003D06368002B00F0BF81236813F0020F7C
:1010DC0075D0814B5B6813F00C0F5FD07E4B5B6857
:1010EC0003F00C03082B54D02369002B00F08A80EA
:1010FC007A4B01221A60FFF757FC0546764B1B68AA
:10110C0013F0020F75D1FFF74FFC401B0228F5D9E5
:10111C0003209EE1704A136843F4803313606368C4
:10112C0043B3FFF741FC05466B4B1B6813F4003FC0
:10113C00CBD1FFF739FC401B6428F5D9032088E19B
:10114C00B3F5A02F09D0644B1A6822F480321A60D0
:10115C001A6822F480221A60E1E703F18043A3F5B8
:10116C003C331A6842F480221A601A6842F48032C6
:10117C001A60D4E7FFF718FC0546574B1B6813F4AD
:10118C00003FA2D0FFF710FC401B6428F5D90320C8
:10119C005FE1514B5B6813F4803FA5D14E4B1B684C
:1011AC0013F0020F03D02369012B40F04F814A4A00
:1011BC00136823F0F803616943EAC10313602368E1
:1011CC0013F0080F33D0A369002B5CD0434B0122E2
:1011DC00C3F88024FFF7E8FB05463F4B5B6A13F02E
:1011EC00020F21D1FFF7E0FB401B0228F5D90320A9
:1011FC002FE1394A136823F0F803616943EAC1030C
:10120C001360DCE7354B00221A60FFF7CDFB054677
:10121C00314B1B6813F0020FD1D0FFF7C5FB401BFD
:10122C000228F5D9032014E10120FFF701FF236800
:10123C0013F0040F00F09680274BDB6913F0805FEE
:10124C0034D1254BDA6942F08052DA61DB6903F064
:10125C0080530193019B0125214B1B6813F4807F64
:10126C0026D0E368012B3DD0002B53D103F18043F2
:10127C0003F504331A6A22F001021A621A6A22F088
:10128C0004021A6233E0154B0022C3F88024FFF7E6
:10129C008BFB0546104B5B6A13F0020FC7D0FFF7B0
:1012AC0083FB401B0228F5D90320D2E00025D3E7AD
:1012BC000B4A136843F480731360FFF775FB064603
:1012CC00074B1B6813F4807FCBD1FFF76DFB801BA2
:1012DC006428F5D90320BCE0001002400000424213
:1012EC00007000405F4A136A43F001031362E36825
:1012FC0033B3FFF759FB06465A4B1B6A13F0020F28
:10130C002FD1FFF751FB801B41F288339842F3D960
:10131C0003209EE0052B09D0524B1A6A22F00102E1
:10132C001A621A6A22F004021A62E0E74D4B1A6A3A
:10133C0042F004021A621A6A42F001021A62D6E7FB
:10134C00FFF732FB0646474B1B6A13F0020F08D01F
:10135C00FFF72AFB801B41F288339842F3D9032014
:10136C0077E0E5B9E369002B72D03E4A526802F08F
:10137C000C02082A56D0022B17D03B4B00221A66BF
:10138C00FFF712FB0446374B1B6813F0007F47D066
:10139C00FFF70AFB001B0228F5D9032059E0314A5C
:1013AC00D36923F08053D361DCE72F4B00221A66FC
:1013BC00FFF7FAFA05462B4B1B6813F0007F06D09B
:1013CC00FFF7F2FA401B0228F5D9032041E0236A0B
:1013DC00B3F5803F1AD023494B6823F47413226A67
:1013EC00606A024313434B601F4B01221A66FFF7DE
:1013FC00DBFA04461B4B1B6813F0007F0ED1FFF782
:10140C00D3FA001B0228F5D9032022E0154A5368B1
:10141C0023F40033A1680B435360DCE7002018E091
:10142C00002016E0012B16D00E4B5B6803F48031C4
:10143C00226A914211D103F47013626A93420ED165
:10144C00002006E001207047012002E0012000E0AE
:10145C00002002B070BD0120FBE70120F9E701205C
:10146C00F7E700BF001002400000424286B0174B65
:10147C000FCB0DF1180C0CE90F0040F20123ADF865
:10148C000430134B5B6803F00C02082A02D011489D
:10149C0006B07047C3F3834218326A4412F8100C3A
:1014AC0013F4803F0DD00A4B5B68C3F340431833F1
:1014BC006B4413F8143C074A02FB00F0B0FBF3F04A
:1014CC00E6E7054B03FB00F0E2E700BF682A0008E3
:1014DC000010024000127A0000093D00002800F0C4
:1014EC00A08070B50D460446524B1B6803F00703F1
:1014FC008B420BD24F4A136823F007030B43136044
:10150C00136803F007038B4240F08D80236813F0BF
:10151C00020F17D013F0040F04D0474A536843F45A
:10152C00E0635360236813F0080F04D0424A5368F9
:10153C0043F460535360404A536823F0F003A168AE
:10154C000B435360236813F0010F31D06368012BF8
:10155C0020D0022B25D0384A126812F0020F64D02A
:10156C0035494A6822F0030213434B60FFF71CFA1B
:10157C000646314B5B6803F00C036268B3EB820FD9
:10158C0016D0FFF711FA801B41F288339842F0D93C
:10159C00032045E0284A126812F4003FE0D10120F4
:1015AC003EE0254A126812F0007FD9D1012037E0C5
:1015BC00204B1B6803F00703AB420AD91D4A136882
:1015CC0023F007032B431360136803F00703AB42AC
:1015DC002DD1236813F0040F06D0174A536823F457
:1015EC00E063E1680B435360236813F0080F07D0E6
:1015FC00114A536823F46053216943EAC1035360D1
:10160C00FFF734FF0C4B5B68C3F303130B4AD35C3B
:10161C00D8400B4B18600B4B1868FFF781F9002072
:10162C0070BD012070470120FAE70120F8E7012086
:10163C00F6E700BF0020024000100240502A0008CC
:10164C00040000200C000020014B1868704700BFFC
:10165C000400002008B5FFF7F7FF044B5B68C3F3E9
:10166C000223034AD35CD84008BD00BF00100240DF
:10167C00602A000808B5FFF7E7FF044B5B68C3F36B
:10168C00C223034AD35CD84008BD00BF00100240FF
:10169C00602A000870B4036A23F001030362036A32
:1016AC004668826922F073020C6844EA020523F052
:1016BC0002028B6813430D4CA04209D00B4CA04284
:1016CC000DD0466085614A684263036270BC704706
:1016DC0023F00803CA68134323F00403EEE726F44F
:1016EC0040764A6932438E691643EAE7002C014082
:1016FC0030B4036A23F480730362036A4568C269D9
:10170C0022F073020C68224323F400738C6843EAC2
:10171C0004230F4CA04209D00D4CA0420ED04560C2
:10172C00C2614A68C263036230BC704723F4006331
:10173C00CC6843EA042323F48063EDE725F4405599
:10174C004C6945EA04158C6945EA0415E7E700BFC6
:10175C00002C014030B4036A23F480530362036A03
:10176C004468C26922F4E6420D6842EA052223F479
:10177C0000538D6843EA0533074DA84206D04460F8
:10178C00C2614A680264036230BC704724F480442E
:10179C004D6944EA8514F2E7002C014010B4036A49
:1017AC00046A24F001040462846924F0F00C4CEA0D
:1017BC00021223F00A030B438261036210BC7047D0
:1017CC0010B4046A24F0100404628469036A24F4DB
:1017DC00704C4CEA023223F0A00343EA01138261FD
:1017EC00036210BC7047836823F070030B4343F013
:1017FC00070383607047000090F83D30DBB2012B8B
:10180C0027D1022380F83D300268D36843F00103EE
:10181C00D3600368114A934210D0B3F1804F0DD0BE
:10182C00A2F59432934209D002F58062934205D01E
:10183C001A6842F001021A60002070479A6802F0A0
:10184C000702062A07D01A6842F001021A6000202B
:10185C007047012070470020704700BF002C0140EA
:10186C0070477047704710B5446A636A83420ED064
:10187C00A36A834214D0E36A83421AD0236B834257
:10188C0020D02046FFF7EEFF0023237710BD012365
:10189C0023778369002BF4D1012384F83E30F0E7E1
:1018AC00022323778369002BEBD1012384F83F308B
:1018BC00E7E7042323778369002BE2D1012384F823
:1018CC004030DEE7082323778369002BD9D101232D
:1018DC0084F84130D5E7704710B5446A636A834297
:1018EC000BD0A36A834210D0E36A834210D0236BDF
:1018FC00834204D10823237701E001232377204678
:10190C00FFF7E9FF0023237710BD02232377F6E7C7
:10191C0004232377F3E7704710B5044603681A696C
:10192C0012F0020F11D0DA6812F0020F0DD06FF026
:10193C0002021A610123037703689B6913F0030FFA
:10194C0070D0FFF78EFF0023237723681A6912F0FB
:10195C00040F12D0DA6812F0040F0ED06FF00402EC
:10196C001A610223237723689B6913F4407F5FD0AD
:10197C002046FFF776FF0023237723681A6912F0BD
:10198C00080F12D0DA6812F0080F0ED06FF00802B0
:10199C001A61042323772368DB6913F0030F4ED0FD
:1019AC002046FFF75EFF0023237723681A6912F0A5
:1019BC00100F12D0DA6812F0100F0ED06FF0100268
:1019CC001A61082323772368DB6913F4407F3DD029
:1019DC002046FFF746FF0023237723681A6912F08D
:1019EC00010F03D0DA6812F0010F36D123681A699F
:1019FC0012F0800F03D0DA6812F0800F34D1236814
:101A0C001A6912F0400F03D0DA6812F0400F32D18D
:101A1C0023681A6912F0200F03D0DA6812F0200F35
:101A2C0030D110BDFFF71CFF2046FFF71BFF8AE7E4
:101A3C002046FFF715FF2046FFF714FF9BE72046D3
:101A4C00FFF70EFF2046FFF70DFFACE72046FFF730
:101A5C0007FF2046FFF706FFBDE76FF001021A6192
:101A6C002046FEF709FCC1E76FF080021A612046A0
:101A7C0000F070FBC3E76FF040021A612046FFF7DD
:101A8C004AFFC5E76FF020021A61204600F061FBA7
:101A9C00C7E7704710B5446A636A83420CD0A36AE7
:101AAC00834213D0E36A834216D0236B834219D04E
:101ABC00012384F83D3003E00123237784F83E3082
:101ACC002046FFF7E6FF0023237710BD0223237780
:101ADC00012384F83F30F3E704232377012384F8B0
:101AEC004030EDE708232377012384F84130E7E702
:101AFC0003681B4A90420AD0B0F1804F07D0A2F580
:101B0C009432904203D002F58062904203D123F0CC
:101B1C0070034A681343124A90420AD0B0F1804FC6
:101B2C0007D0A2F59432904203D002F58062904225
:101B3C0003D123F44073CA68134323F080034A692A
:101B4C00134303608B68C3620B688362044B984237
:101B5C0002D00123436170470B690363F9E700BFAF
:101B6C00002C014040B310B5044690F83D30F3B161
:101B7C00022384F83D30214651F8040BFFF7B8FFDF
:101B8C00012384F8463084F83E3084F83F3084F8E2
:101B9C00403084F8413084F8423084F8433084F883
:101BAC00443084F8453084F83D30002010BD80F876
:101BBC003C30FEF7B5FDDBE70120704740B310B5B4
:101BCC00044690F83D30F3B1022384F83D302146B1
:101BDC0051F8040BFFF78CFF012384F8463084F88E
:101BEC003E3084F83F3084F8403084F8413084F83B
:101BFC00423084F8433084F8443084F8453084F81B
:101C0C003D30002010BD80F83C30FEF753FDDBE783
:101C1C000120704730B4036A23F010030362036A97
:101C2C004468826922F4E6420D6842EA052223F0F8
:101C3C0020038D6843EA05130E4DA84209D00D4DC3
:101C4C00A8420ED0446082614A688263036230BC51
:101C5C00704723F08003CD6843EA051323F040035B
:101C6C00EDE724F440644D6944EA85048D6944EA47
:101C7C008504E7E7002C014038B590F83C30012B87
:101C8C0060D004460D46012380F83C300C2A1AD84B
:101C9C00DFE802F0071919191D1919193119191949
:101CAC0044000068FFF7F6FC2268936943F00803D0
:101CBC0093612268936923F004039361226893690A
:101CCC0029690B439361002084F83C0038BD0068FF
:101CDC00FFF7A0FF2268936943F4006393612268C5
:101CEC00936923F48063936122689369296943EAB9
:101CFC0001239361E7E70068FFF7FAFC2268D369D8
:101D0C0043F00803D3612268D36923F00403D36141
:101D1C002268D36929690B43D361D4E70068FFF7C4
:101D2C0019FD2268D36943F40063D3612268D36937
:101D3C0023F48063D3612268D369296943EA0123C0
:101D4C00D361C0E70220C1E710B4846824F47F4C4F
:101D5C0042EA03220A4342EA0C02826010BC70473A
:101D6C0090F83C30012B66D010B50446012380F866
:101D7C003C30022380F83D300268936823F47F43A3
:101D8C0023F0770393600B68602B40D022D8402B54
:101D9C0047D00BD9502B0ED1CA6849680068FFF7A1
:101DAC00FDFC50212068FFF71EFD04E0202B0CD019
:101DBC0008D9302B09D0012384F83D30002084F859
:101DCC003C0010BD0BB1102BF5D119462068FFF764
:101DDC000AFDF0E7702B0ED0B3F5005FEBD1CB68AA
:101DEC004A6889680068FFF7AFFF2268936843F47C
:101DFC0080439360DFE7CB684A6889680068FFF727
:101E0C00A3FF2268936843F077039360D3E7CA6813
:101E1C0049680068FFF7D4FC60212068FFF7E3FCF9
:101E2C00C9E7CA6849680068FFF7B8FC4021206818
:101E3C00FFF7D9FCBFE70220704701F01F01012317
:101E4C0003FA01FC036A23EA0C030362036A02FA35
:101E5C0001F10B430362704770B5044616460D46FC
:101E6C0000292DD190F83E00C0B2022814BF0020EA
:101E7C000120002840F0F880002D3DD194F83E2040
:101E8C00D2B2012A14BF00220122002A00F0EE80F7
:101E9C00002E4DD0002D4FD1022284F83E200C2D67
:101EAC0070D8DFE815F059006F006F006F008D00DF
:101EBC006F006F006F00A4006F006F006F00BB001D
:101ECC00042909D008290FD090F84100C0B202288B
:101EDC0014BF00200120CCE790F83F00C0B20228CC
:101EEC0014BF00200120C4E790F84000C0B20228C3
:101EFC0014BF00200120BCE7042D09D0082D0FD001
:101F0C0094F84120D2B2012A14BF00220122BCE76E
:101F1C0094F83F20D2B2012A14BF00220122B4E768
:101F2C0094F84020D2B2012A14BF00220122ACE75F
:101F3C00002BAFD001209AE0042D05D0082D07D03E
:101F4C00022284F84120AAE7022284F83F20A6E767
:101F5C00022284F84020A2E7626A4A499162626ACE
:101F6C004949D162626A4949116322683432314667
:101F7C00606AFEF7EBFD00287AD12268D36843F43F
:101F8C000073D360012229462068FFF756FF2368AF
:101F9C003F4A934258D023683D4A934259D0B3F1FB
:101FAC00804F56D0A2F59432934252D002F5806203
:101FBC0093424ED01A6842F001021A60002056E09B
:101FCC00A26A30499162A26A2F49D162A26A2F4952
:101FDC001163226838323146A06AFEF7B7FD00283B
:101FEC0048D12268D36843F48063D360CAE7E26ABD
:101FFC0024499162E26A2449D162E26A234911635D
:10200C0022683C323146E06AFEF7A0FD002833D14D
:10201C002268D36843F40063D360B3E7226B194999
:10202C009162226B1849D162226B184911632268A4
:10203C0040323146206BFEF789FDF8B92268D3682F
:10204C0043F48053D3609DE75A6C42F400425A64C7
:10205C00A1E79A6802F00702062A11D01A6842F02A
:10206C0001021A60002002E0022000E0012070BD95
:10207C000120FCE70120FAE70120F8E70120F6E750
:10208C000020F4E773180008E5180008A11A0008EE
:10209C00002C014090F83C30012B2CD010B40123C3
:1020AC0080F83C30022380F83D3003685A689C6805
:1020BC0022F0700C0A6842EA0C025A6003680F4A5C
:1020CC0093420AD0B3F1804F07D0A2F594329342D9
:1020DC0003D002F58062934204D124F080044A6854
:1020EC0014439C60012380F83D30002380F83C3081
:1020FC00184610BC70470220704700BF002C0140EE
:10210C0090F83C30012B22D0012380F83C30CB6876
:10211C0023F440738A68134323F480634A6813439F
:10212C0023F400630A68134323F480530A691343AE
:10213C0023F400534A69134323F48043CA691343BD
:10214C0002685364002380F83C3018467047022024
:10215C007047704770470268D36823F49073D3605C
:10216C000268536923F001035361036B012B05D003
:10217C00202380F83E300023036370470268D36845
:10218C0023F01003D360F3E790F83D30DBB2212B42
:10219C0001D0022070478368B3F5805F17D0036AC3
:1021AC005A1C02621A7803685A60C38C9BB2013BBA
:1021BC009BB2C3844BB90268D36823F08003D3600D
:1021CC000268D36843F04003D36000207047036972
:1021DC00002BE4D1036A1B880268C3F30803536025
:1021EC00036A02330362E0E710B504460268136920
:1021FC0023F44053C1680B43136183680269134392
:10220C0042691A430168CB6823F4B05323F00C03E2
:10221C001343CB600268536923F4407381690B4309
:10222C0053610268134B9A4220D0FFF713FA02460F
:10223C0002EB820202EB820263689B00B2FBF3F2B8
:10224C000D48A0FB02314909642303FB11231B0138
:10225C003233A0FB03235B0903F0F00202EB011203
:10226C0003F00F03216813448B6010BDFFF702FAD3
:10227C000246DDE7003801401F85EB5158B310B51D
:10228C00044690F83D300BB3242384F83D3022688B
:10229C00D36823F40053D3602046FFF7A5FF2268D0
:1022AC00136923F4904313612268536923F02A03C2
:1022BC0053612268D36843F40053D3600020206438
:1022CC00202384F83D3084F83E3010BD80F83C303B
:1022DC00FEF7E2FAD8E701207047704708B50168AD
:1022EC00CA6822F04002CA60202280F83D20FFF725
:1022FC00F4FF002008BD704708B5406A0023C38571
:10230C00C384FFF7F8FF08BD704790F83E30DBB28E
:10231C00222B60D18368B3F5805F46D0826AB3F517
:10232C00805F04D0002B4DD10369002B4AD1036888
:10233C005B681370836A01338362C38D9BB2013B6C
:10234C009BB2C385002B48D100B583B00268D3681B
:10235C0023F02003D3600268D36823F48073D36026
:10236C000268536923F001035361202380F83E3047
:10237C00036B012B2CD1002303630268D36823F079
:10238C001003D36003681A6812F0100F06D00022F5
:10239C0001921A6801925B680193019B818DFFF792
:1023AC00B3FF002003B05DF804FB0269002AB5D12D
:1023BC00826A03685B68C3F308031380836A023381
:1023CC008362BAE703685B6803F07F031370B1E7BD
:1023DC00FDF726FFE5E7022070470020704700005C
:1023EC0030B583B0044602681368D068516913F0A5
:1023FC000F0505D113F0200F02D010F0200F19D1CA
:10240C002DB111F0010119D110F4907F16D1216B6F
:10241C00012975D013F0800F03D010F0800F40F01D
:10242C00D78013F0400F03D010F0400F40F0D48051
:10243C0003B030BD2046FFF768FFF9E713F0010F3A
:10244C0006D010F4807F03D0226C42F0010222648B
:10245C0013F0040F04D019B1226C42F00202226472
:10246C0013F0020F04D019B1226C42F00402226462
:10247C0013F0080F07D010F0200F00D119B1226C07
:10248C0042F008022264226C002AD1D013F0200FF3
:10249C0002D010F0200F21D123685B6903F04003B8
:1024AC00226C12F0080F00D123B32046FFF753FE25
:1024BC0023685A6912F0400F18D05A6922F0400272
:1024CC005A61A36B73B1464A5A63A06BFEF79AFB31
:1024DC000028ADD0A06B436B9847A9E72046FFF7C7
:1024EC0014FFD9E72046FFF706FFA1E72046FFF7C8
:1024FC0002FF9DE72046FFF7FEFE0023236497E7CB
:10250C0013F0100F86D010F0100F83D0002301931E
:10251C001368019353680193019B536913F0400FA7
:10252C0032D0A16B0B685B689BB2002B80D0A08D66
:10253C0098427FF67DAFE3858B69202B08D1A18D66
:10254C00E38D9BB2C91A89B22046FFF7DDFE6FE717
:10255C00D36823F48073D3602268536923F001039A
:10256C0053612268536923F040035361202384F89C
:10257C003E30002323632268D36823F01003D3601A
:10258C00A06BFEF71DFBDAE7A18DE38D9BB2C91A98
:10259C0089B2E38D9BB2002B3FF44AAF00293FF484
:1025AC0047AFD36823F49073D3602268536923F048
:1025BC0001035361202384F83E30002323632268F7
:1025CC00D36823F01003D3602046FFF79DFE2FE75E
:1025DC002046FFF7D9FD2BE72046FFF77FFE27E7C4
:1025EC0005230008034681628285C2850020186499
:1025FC00222283F83E2083F83C001968CA6842F412
:10260C008072CA6019684A6942F001024A611A680C
:10261C00D36843F02003D360704708B590F83E3080
:10262C00DBB2202B0DD171B17AB190F83C30012B7B
:10263C000DD0012380F83C3000230363FFF7D2FF59
:10264C0000E0022008BD0120FCE70120FAE702208F
:10265C00F8E700000C480D490D4A002302E0D4585D
:10266C00C4500433C4188C42F9D30A4A0A4C0023D0
:10267C0001E013600432A242FBD3FDF7E3FF00F04C
:10268C0013F8FDF78FFE7047000000204404002073
:10269C00902B000844040020100B0020FEE70000E3
:1026AC000A22002100F034B970B50D4E0D4D761B89
:1026BC00B61006D0002455F8043B01349847A642C6
:1026CC00F9D1094E094D00F0AFF9761BB61006D0C2
:1026DC00002455F8043B01349847A642F9D170BD4B
:1026EC00842B0008842B00088C2B0008842B0008FA
:1026FC00830730B548D0541E002A3FD00346CAB2D7
:10270C0001E0013C3AD303F8012B9D07F9D1032CCE
:10271C002DD9CDB245EA05250F2C45EA054536D90C
:10272C00A4F1100222F00F0C03F1200EE6444FEA44
:10273C00121C03F1100242E9045542E90255103211
:10274C007245F8D10CF1010214F00C0F03EB0212DC
:10275C0004F00F0C13D0ACF1040323F00303043387
:10276C00134442F8045B9342FBD10CF003042CB1EC
:10277C00CAB21C4403F8012B9C42FBD130BD644609
:10278C001346002CF4D1F9E703461446BFE71A466A
:10279C00A446E0E720F0030110F00300C0F10000B4
:1027AC0051F8043B00F1040C4FEACC0C6FF0000222
:1027BC001CBF22FA0CF213434FF0010C4CEA0C2C08
:1027CC004CEA0C4CA3EB0C0222EA030212EACC12E8
:1027DC0004BF51F8043B0430F4D0C2F1000102EA0A
:1027EC000102B2FA82F2C2F11F0200EBD200704772
:1027FC002DE9F04F81468E46444D70461EF801CBB4
:10280C0015F80C4014F00804F7D1BCF12D0FE34679
:10281C0053D06FF00048BCF12B0F04BF9EF800B0F2
:10282C0000F1020E1BB1102B4FD01F4604E0BBF180
:10283C00300F55D00A231F460025B8FBF7F6284663
:10284C0007FB168A07E0864215D329D0012507FB22
:10285C0000C01EF801BBABF1300CBCF1090F06D95E
:10286C00ABF1410CBCF1190F08D8ABF1370C634537
:10287C000DDD002DE7DA4FF0FF35EAE7ABF1610C27
:10288C00BCF1190F03D8ABF1570C6345F1DC002DEB
:10289C000BDB04B140420AB195BB1160BDE8F08F6F
:1028AC00E245D3DA4FF0FF35D3E72223C9F80030E5
:1028BC001AB340460EF1FF31EFE79EF800B04FF02F
:1028CC000048012400F1020EACE7BBF1300FACD193
:1028DC009EF8000000F0DF00582807D01F46ABE739
:1028EC009EF8003003F0DF03582B0BD110279EF815
:1028FC0001B03B460EF1020E9EE74046BDE8F08F5C
:10290C008046D6E708231F4696E700BF812A0008B9
:10291C00012A10B50AD0242A08D8074C13460A46B7
:10292C0001462068BDE81040FFF762BF00F016F8C2
:10293C0016230360002010BD10000020024B13B1C1
:10294C00024800F005B87047000000007529000827
:10295C00002301461A46184600F020B8014B1868AF
:10296C00704700BF1000002038B5084B084D5B1BAA
:10297C009C1007D0043B1D44013C55F80439984782
:10298C00002CF9D1BDE8384000F054B8902B000869
:10299C008C2B0008704700BF704700BF2DE9F04733
:1029AC00DFF87CA00646DAF8000098460F46914600
:1029BC00FFF7F0FF1B4B1B68D3F8484124B3656845
:1029CC001F2D26DC5EB96B1C0235DAF80000636043
:1029DC0044F82570FFF7E0FF0020BDE8F0870123E5
:1029EC0004EB8501C1F88890D4F88821AB401A43D8
:1029FC00022EC4F88821C1F80881E4D1D4F88C21C6
:102A0C001343C4F88C31DEE703F5A674C3F84841D0
:102A1C00D5E7DAF80000FFF7BFFF4FF0FF30DCE737
:102A2C00400400207C2A0008F8B500BFF8BC08BCA4
:102A3C009E467047F8B500BFF8BC08BC9E46704770
:102A4C000000000000000000000000000102030470
:102A5C000607080900000000010203040203040534
:102A6C00060708090A0B0C0D0E0F101000000000D1
:102A7C0018000020002020202020202020202828A2
:102A8C002828282020202020202020202020202022
:102A9C002020202020881010101010101010101062
:102AAC001010101010040404040404040404041092
:102ABC001010101010104141414141410101010120
:102ACC0001010101010101010101010101010101EA
:102ADC0010101010101042424242424202020202F6
:102AEC0002020202020202020202020202020202BA
:102AFC00101010102000000000000000000000006A
:102B0C0000000000000000000000000000000000B9
:102B1C0000000000000000000000000000000000A9
:102B2C000000000000000000000000000000000099
:102B3C000000000000000000000000000000000089
:102B4C000000000000000000000000000000000079
:102B5C000000000000000000000000000000000069
:102B6C000000000000000000000000000000000059
:082B7C00000000000000000051
:082B8400492900083101000895
:042B8C000D0100082F
:102B9000102700000024F4000100000010000000D5
:102BA00018000020000000000000000004030020C6
:102BB0006C030020D403002000000000000000008F
:102BC0000000000000000000000000000000000005
:102BD00000000000000000000000000000000000F5
:102BE00000000000000000000000000000000000E5
:102BF00000000000000000000000000000000000D5
:102C000000000000000000000000000000000000C4
:102C100000000000000000000000000000000000B4
:102C200000000000000000000000000000000000A4
:102C30000000000000000000000000000000000094
:102C40000000000000000000000000000000000084
:102C500001000000000000000E33CDAB34126DE621
:102C6000ECDE05000B00000000000000000000008A
:102C70000000000000000000000000000000000054
:102C80000000000000000000000000000000000044
:102C90000000000000000000000000000000000034
:102CA0000000000000000000000000000000000024
:042FD0000C0B0020C6
:040000050800266168
:00000001FF
